:0400000026EF00F0F7
:100008005B82FACF03F0FBCF04F0F2AC0EEF00F006
:1000180010EF00F020EF00F09DA015EF00F017EFB3
:1000280000F020EF00F09EA01CEF00F01EEF00F0A3
:1000380020EF00F02FEC3BF004C0FBFF03C0FAFFF9
:100048005B921100A0EF34F0000E0001DF6F20EE8C
:100058002DF05950D9265A50DA22DF50E36F20EE9E
:100068002EF05950D9265A50DA22DF50E26F59C083
:10007800D9FF5AC0DAFFDECF05F0DDCF06F0A6ECD7
:100088003CF00009D8B44BEF00F04DEF00F020EF42
:100098000DF0090E0001E26F69EC3DF020EF0DF064
:1000A80020EE02F05950D9265A50DA22E3C1DEFF79
:1000B800E4C1DEFFE5C1DEFFE6C1DEFF20EE06F0AB
:1000C8005950D9265A50DA2292C2DEFF93C2DDFF78
:1000D80020EE14F05950D9265A50DA22DE6ADE6A28
:1000E800DE6ADD6A22EE96F010EE08F05950E1263D
:1000F8005A50E222DECFE6FFDECFE6FFDECFE6FF94
:10010800DECFE6FF20EE08F05950D9265A50DA2201
:10011800DECFCAF0DECFCBF0DECFCCF0DECFCDF035
:10012800010ECA25CE6F000ECB21CF6F000ECC2159
:10013800D06F000ECD21D16F20EE0CF05950D9268A
:100148005A50DA22CEC0DEFFCFC0DEFFD0C0DEFFBD
:10015800D1C0DEFF0201A0510001CB6FCA6B22EEB5
:10016800A0F0DECFCCF0DDCFCDF0CDC0CCF0CD6BA4
:10017800FF0ECC17000ECD17CA51CC11CE6FCB5144
:10018800CD11CF6F20EE18F05950D9265A50DA22E7
:10019800CEC0DEFFCFC0DDFF20EE1CF05950D926BF
:1001A8005A50DA22FAC1DEFFFBC1DDFF20EE38F03B
:1001B8005950D9265A50DA22120EDF6E20EE33F04B
:1001C8005950D9265A50DA22020EDE6E000EDD6E24
:1001D80020EE35F05950D9265A50DA22020EDE6E3A
:1001E800000EDD6E20EE37F05950D9265A50DA222B
:1001F800030EDF6E59C07DF05AC07EF01CEC11F082
:10020800030E0001E36F60EF0DF0000E0001E36FD5
:1002180059C005F05AC006F036EC30F060EF0DF02A
:10022800E251CA6FCB6BCB51000AD8B41EEF01F074
:1002380060EF0DF0CA51000AD8B409EF01F0030AC3
:10024800D8B454EF00F060EF0DF060EF0DF022EE3F
:1002580096F010EE08F05950E1265A50E222DECF0F
:10026800E6FFDECFE6FFDECFE6FFDECFE6FF010EDC
:10027800020196250001CA6F000E020197210001B4
:10028800CB6F000E020198210001CC6F000E020115
:1002980099210001CD6F20EE0CF05950D9265A5003
:1002A800DA22CAC0DEFFCBC0DEFFCCC0DEFFCDC085
:1002B800DEFF0201A0510001CB6FCA6B22EEA0F055
:1002C800DECFCCF0DDCFCDF0CDC0CCF0CD6BFF0EC6
:1002D800CC17000ECD17CA51CC11CE6FCB51CD1112
:1002E800CF6F20EE18F05950D9265A50DA22CEC0D6
:1002F800DEFFCFC0DDFF20EE1CF05950D9265A5042
:10030800DA22FAC1DEFFFBC1DDFF20EE33F05950DF
:10031800D9265A50DA22020EDE6E000EDD6E20EE6D
:1003280035F05950D9265A50DA22020EDE6E000EE8
:10033800DD6E20EE37F05950D9265A50DA22030ED6
:10034800DF6E20EE38F05950D9265A50DA22120EB4
:10035800DF6EFEEF00F020EE33F05950D9265A50E8
:10036800DA22DE6ADD6A20EE10F05950D9265A509A
:10037800DA22DECFCAF0DECFCBF0DECFCCF0DECF94
:10038800CDF0010ECA25CE6F000ECB21CF6F000E27
:10039800CC21D06F000ECD21D16F02019A510001FE
:1003A800CE1913E102019B510001CF190EE10201A0
:1003B8009C510001D01909E102019D510001D11998
:1003C800D8A4E9EF01F0EBEF01F096EF02F020EE90
:1003D80010F05950D9265A50DA22DECFCAF0DECFB3
:1003E800CBF0DECFCCF0DECFCDF0010ECA25CE6F3C
:1003F800000ECB21CF6F000ECC21D06F000ECD2187
:10040800D16F20EE10F05950D9265A50DA22CEC0BA
:10041800DEFFCFC0DEFFD0C0DEFFD1C0DEFF20EEA2
:1004280038F05950D9265A50DA22100EDF6E22EED3
:1004380096F010EE08F05950E1265A50E222DECF2D
:10044800E6FFDECFE6FFDECFE6FFDECFE6FF010EFA
:10045800020196250001CA6F000E020197210001D2
:10046800CB6F000E020198210001CC6F000E020133
:1004780099210001CD6F20EE0CF05950D9265A5021
:10048800DA22CAC0DEFFCBC0DEFFCCC0DEFFCDC0A3
:10049800DEFF0201A0510001CB6FCA6B22EEA0F073
:1004A800DECFCCF0DDCFCDF0CDC0CCF0CD6BFF0EE4
:1004B800CC17000ECD17CA51CC11CE6FCB51CD1130
:1004C800CF6F20EE18F05950D9265A50DA22CEC0F4
:1004D800DEFFCFC0DDFF20EE1CF05950D9265A5060
:1004E800DA22FAC1DEFFFBC1DDFF010ED26F59C06F
:1004F8007DF05AC07EF01CEC11F00001D219D8A48E
:1005080088EF02F08AEF02F060EF0DF0040EE36F5F
:1005180020EE39F05950D9265A50DA22030EDF6EF0
:1005280060EF0DF022EE9AF010EE10F05950E1262F
:100538005A50E222DECFE6FFDECFE6FFDECFE6FF4F
:10054800DECFE6FF20EE38F05950D9265A50DA228D
:10055800140EDF6E010ED36F59C07DF05AC07EF0C5
:100568001CEC11F00001D319D8A4BDEF02F0BFEFC5
:1005780002F060EF0DF009EF01F020EE33F0595072
:10058800D9265A50DA22DE6ADD6A20EE10F0595078
:10059800D9265A50DA22DECFCAF0DECFCBF0DECF32
:1005A800CCF0DECFCDF0010ECA25CE6F000ECB21E8
:1005B800CF6F000ECC21D06F000ECD21D16F02017C
:1005C8009A510001CE1913E102019B510001CF1984
:1005D8000EE102019C510001D01909E102019D516F
:1005E8000001D119D8A4FBEF02F0FDEF02F097EF5C
:1005F80003F020EE10F05950D9265A50DA22DECFF7
:10060800CAF0DECFCBF0DECFCCF0DECFCDF0010EDE
:10061800CA25CE6F000ECB21CF6F000ECC21D06F34
:10062800000ECD21D16F20EE10F05950D9265A5026
:10063800DA22CEC0DEFFCFC0DEFFD0C0DEFFD1C0E1
:10064800DEFF20EE38F05950D9265A50DA22100E23
:10065800DF6E22EE96F010EE08F05950E1265A505F
:10066800E222DECFE6FFDECFE6FFDECFE6FFDECF1B
:10067800E6FF010E020196250001CA6F000E020175
:1006880097210001CB6F000E020198210001CC6F69
:10069800000E020199210001CD6F20EE0CF0595097
:1006A800D9265A50DA22CAC0DEFFCBC0DEFFCCC042
:1006B800DEFFCDC0DEFF0201A0510001CB6FCA6B87
:1006C80022EEA0F0DECFCCF0DDCFCDF0CDC0CCF067
:1006D800CD6BFF0ECC17000ECD17CA51CC11CE6FC3
:1006E800CB51CD11CF6F20EE18F05950D9265A5062
:1006F800DA22CEC0DEFFCFC0DDFF20EE1CF059505D
:10070800D9265A50DA22FAC1DEFFFBC1DDFF040EFA
:10071800E36F20EE39F05950D9265A50DA22030EE9
:10072800DF6E60EF0DF022EE9AF010EE10F05950E7
:10073800E1265A50E222DECFE6FFDECFE6FFDECF2B
:10074800E6FFDECFE6FF20EE38F05950D9265A50A2
:10075800DA22040EDF6E010ED46F59C07DF05AC044
:100768007EF01CEC11F00001D419D8A4BEEF03F000
:10077800C0EF03F060EF0DF009EF01F020EE37F065
:100788005950D9265A50DA22DF50D8B4CEEF03F0A8
:10079800D0EF03F009EF04F0010ED56F59C07DF0DA
:1007A8005AC07EF01CEC11F00001D519D8A4DFEF77
:1007B80003F0E1EF03F060EF0DF020EE38F0595050
:1007C800D9265A50DA22DFA4ECEF03F0EEEF03F05B
:1007D800F0EF03F009EF01F020EE38F05950D92678
:1007E8005A50DA22DFA8FBEF03F0FDEF03F029EF00
:1007F80001F0040EE36F20EE39F05950D9265A5013
:10080800DA22030EDF6E60EF0DF020EE38F059505B
:10081800D9265A50DA22040EDF6E010ED66F59C05F
:100828007DF05AC07EF01CEC11F00001D619D8A456
:1008380020EF04F022EF04F060EF0DF009EF01F073
:10084800E251CA6FCB6BCB51000AD8B42EEF04F03B
:1008580060EF0DF0CA51000AD8B409EF01F0030A9D
:10086800D8B42BEF01F0070AD8B4C1EF02F0010A9F
:10087800D8B4AFEF01F00C0AD8B409EF01F0030ABD
:10088800D8B409EF01F0060AD8B4C2EF03F060EF5C
:100898000DF059C0D9FF5AC0DAFF02019451DE1891
:1008A80007E19551DE18D8A45CEF04F05EEF04F080
:1008B80060EF0DF020EE33F05950D9265A50DA2265
:1008C800DE6ADD6A20EE02F05950D9265A50DA2243
:1008D8000101E351DE180DE1E451DE180AE1E551AA
:1008E800DE1807E1E651DE18D8A47DEF04F07FEFAB
:1008F80004F0C9EF04F020EE06F05950D9265A50FA
:10090800DA2202019251DE1807E19351DE18D8A4C9
:1009180090EF04F092EF04F0C9EF04F020EE10F02D
:100928005950D9265A50DA22DECFCAF0DECFCBF0A2
:10093800DECFCCF0DECFCDF0010E0001CA25CE6FA0
:10094800000ECB21CF6F000ECC21D06F000ECD2131
:10095800D16F02019A510001CE1913E102019B5196
:100968000001CF190EE102019C510001D01909E1E3
:1009780002019D510001D119D8A4C5EF04F0C7EFB9
:1009880004F0C9EF04F0040EE36F20EE39F059507B
:10099800D9265A50DA22030EDF6E60EF0DF020EEF2
:1009A80002F05950D9265A50DA220101E351DE18D3
:1009B8000DE1E451DE180AE1E551DE1807E1E651E0
:1009C800DE18D8A4EAEF04F0ECEF04F060EF0DF0C5
:1009D80020EE06F05950D9265A50DA2202019251D7
:1009E800DE1807E19351DE18D8A4FDEF04F0FFEFFD
:1009F80004F060EF0DF020EE0CF05950D9265A5053
:100A0800DA229651DE180DE19751DE180AE1985165
:100A1800DE1807E19951DE18D8A415EF05F017EF95
:100A280005F060EF0DF020EE10F05950D9265A501D
:100A3800DA22DECFCAF0DECFCBF0DECFCCF0DECFCD
:100A4800CDF0010E0001CA25CE6F000ECB21CF6F6D
:100A5800000ECC21D06F000ECD21D16F02019A512A
:100A68000001CE1913E102019B510001CF190EE1DB
:100A780002019C510001D01909E102019D510001B8
:100A8800D119D8A44AEF05F04CEF05F060EF0DF04E
:100A980020EE10F05950D9265A50DA22DECFCAF08B
:100AA800DECFCBF0DECFCCF0DECFCDF0010ECA2505
:100AB800CE6F000ECB21CF6F000ECC21D06F000E71
:100AC800CD21D16F20EE10F05950D9265A50DA2294
:100AD800CEC0DEFFCFC0DEFFD0C0DEFFD1C0DEFF5C
:100AE80020EE33F05950D9265A50DA22DE6ADD6AF0
:100AF800040EE36F20EE39F05950D9265A50DA2205
:100B0800030EDF6E60EF0DF020EE33F05950D9265A
:100B18005A50DA22DE6ADD6A20EE38F05950D926BA
:100B28005A50DA22010EDF6E20EE33F05950D926E2
:100B38005A50DA22020EDE6E000EDD6E20EE35F01F
:100B48005950D9265A50DA22020EDE6E000EDD6E9A
:100B580020EE37F05950D9265A50DA22050EDF6EAA
:100B6800050EE36F59C07DF05AC07EF01CEC11F001
:100B780060EF0DF059C0D9FF5AC0DAFF0201945155
:100B8800DE1807E19551DE18D8A4CDEF05F0CFEFB8
:100B980005F060EF0DF020EE0CF05950D9265A50B0
:100BA800DA229651DE180DE19751DE180AE19851C4
:100BB800DE1807E19951DE18D8A4E5EF05F0E7EF54
:100BC80005F060EF0DF020EE02F05950D9265A508A
:100BD800DA22DE6ADE6ADE6ADD6A20EE06F0595045
:100BE800D9265A50DA22DE6ADD6A20EE10F0595012
:100BF800D9265A50DA22DE6ADE6ADE6ADD6A20EE1B
:100C080014F05950D9265A50DA22DE6ADE6ADE6AB2
:100C1800DD6A20EE08F05950D9265A50DA22DE6AE9
:100C2800DE6ADE6ADD6A20EE0CF05950D9265A5089
:100C3800DA22DE6ADE6ADE6ADD6A20EE18F05950D2
:100C4800D9265A50DA22DE6ADD6A20EE1CF05950A5
:100C5800D9265A50DA22B40EDE6E050EDD6E010E6C
:100C68000001E36F60EF0DF020EE37F05950D92600
:100C78005A50DA22DF50D8B444EF06F046EF06F0B7
:100C880048EF06F0B6EF05F020EE38F05950D926B7
:100C98005A50DA22040EDF6E010ED76F59C07DF06C
:100CA8005AC07EF01CEC11F00001D719D8A45FEFF0
:100CB80006F061EF06F060EF0DF020EE02F05950FB
:100CC800D9265A50DA22DE6ADE6ADE6ADD6A20EE4A
:100CD80006F05950D9265A50DA22DE6ADD6A20EE2B
:100CE80010F05950D9265A50DA22DE6ADE6ADE6AD6
:100CF800DD6A20EE14F05950D9265A50DA22DE6AFD
:100D0800DE6ADE6ADD6A20EE08F05950D9265A50AC
:100D1800DA22DE6ADE6ADE6ADD6A20EE0CF05950FD
:100D2800D9265A50DA22DE6ADE6ADE6ADD6A20EEE9
:100D380018F05950D9265A50DA22DE6ADD6A20EEB8
:100D48001CF05950D9265A50DA22B40EDE6E050E20
:100D5800DD6E33EF06F0E251CA6FCB6BCB51000A60
:100D6800D8B4B9EF06F060EF0DF0CA51000AD8B454
:100D780088EF05F0040AD8B4D3EF04F0010AD8B418
:100D88004DEF04F00C0AD8B4BEEF05F0030AD8B44E
:100D9800BEEF05F0060AD8B438EF06F060EF0DF0A4
:100DA80020EE02F05950D9265A50DA220101E351B7
:100DB800DE180DE1E451DE180AE1E551DE1807E11D
:100DC800E651DE18D8A4EBEF06F0EDEF06F060EF81
:100DD8000DF020EE0CF05950D9265A50DA220201B3
:100DE8009651DE180DE19751DE180AE19851DE1888
:100DF80007E19951DE18D8A404EF07F006EF07F0D1
:100E080060EF0DF020EE14F05950D9265A50DA222E
:100E18009A51DE5C9B51DE589C51DE589D51DE583C
:100E2800D8B019EF07F01BEF07F060EF0DF020EED8
:100E380010F05950D9265A50DA22DECFCAF0DECF48
:100E4800CBF0DECFCCF0DECFCDF0010E0001CA250D
:100E5800CE6F000ECB21CF6F000ECC21D06F000ECD
:100E6800CD21D16F02019A510001CE5D02019B5143
:100E78000001CF5902019C510001D05902019D5136
:100E88000001D159D8A04BEF07F04DEF07F029EF3B
:100E980001F020EE10F05950D9265A50DA22DECF50
:100EA800CAF0DDCFCBF002019A510001CA5DE06FB4
:100EB80002019B510001CB59E16F20EE25F05950FA
:100EC800D9265A50DA22DECFCAF0DDCFCBF0E05176
:100ED800CA5FE151CB5B20EE25F05950D9265A5014
:100EE800DA22000EDE6EDD6E20EE27F05950D9268C
:100EF8005A50DA22DECFCAF0DDCFCBF0E051CA2754
:100F0800E151CB2320EE27F05950D9265A50DA2246
:100F1800CAC0DEFFCBC0DDFF22EE9AF0FF0EDE2452
:100F2800CA6FFF0EDE20CB6FFF0EDE20CC6FFF0EE8
:100F3800DE20CD6F20EE14F05950D9265A50DA220F
:100F4800CAC0DEFFCBC0DEFFCCC0DEFFCDC0DEFFF7
:100F580022EE9AF010EE10F05950E1265A50E22293
:100F6800DECFE6FFDECFE6FFDECFE6FFDECFE6FF31
:100F7800020167516811D8A4C4EF07F0C6EF07F063
:100F8800D4EF07F020EE10F05950D9265A50DA2243
:100F9800DECF49F2DECF4AF2DECF4BF2DECF4CF2A3
:100FA80020EE27F05950D9265A50DA22DE50DE10AA
:100FB800D8A4E1EF07F0E3EF07F003EF08F020EE25
:100FC80029F05950D9265A50DA22020EDE18D8A430
:100FD800F0EF07F0F2EF07F078EF08F020EE29F0D5
:100FE8005950D9265A50DA22DF6A20EE33F0595088
:100FF800D9265A50DA22DE6ADD6A78EF08F067519E
:101008006811D8B40AEF08F00CEF08F030EF08F0D8
:1010180020EE25F05950D9265A50DA2265C2DEFF53
:1010280066C2DDFF20EE2AF05950D9265A50DA223E
:1010380067C2DEFF68C2DDFF20EE10F05950D926E6
:101048005A50DA2249C2DEFF4AC2DEFF4BC2DEFF37
:101058004CC2DEFF40EF08F020EE27F05950D926A9
:101068005A50DA2210EE2AF05950E1265A50E2225C
:10107800DECFE6FFDDCFE5FF20EE35F05950D9266B
:101088005A50DA22020EDE6E000EDD6E20EE37F0C8
:101098005950D9265A50DA22050EDF6E59C07DF014
:1010A8005AC07EF01CEC11F0020167516811D8B4E7
:1010B80060EF08F062EF08F078EF08F045519A19F0
:1010C8000FE146519B190CE147519C1909E1485120
:1010D8009D19D8B472EF08F074EF08F078EF08F0B3
:1010E800000E686F000E676F0101F151F211D8B45C
:1010F80080EF08F082EF08F029EF01F022EE96F079
:1011080010EE08F05950E1265A50E222DECFE6FFF1
:10111800DECFE6FFDECFE6FFDECFE6FFF1C1BEF0B1
:10112800F2C1BFF0EDEC2AF060EF0DF020EE38F0E0
:101138005950D9265A50DA22110EDF6E050EE36F88
:1011480020EE33F05950D9265A50DA22DE6ADD6A89
:1011580020EE33F05950D9265A50DA22020EDE6EAC
:10116800000EDD6E20EE35F05950D9265A50DA229D
:10117800020EDE6E000EDD6E20EE37F05950D926D5
:101188005A50DA22050EDF6EB6EF05F020EE02F0B7
:101198005950D9265A50DA220101E351DE180DE1DF
:1011A800E451DE180AE1E551DE1807E1E651DE18E0
:1011B800D8A4E1EF08F0E3EF08F060EF0DF020EEBF
:1011C8000CF05950D9265A50DA2202019651DE18ED
:1011D8000DE19751DE180AE19851DE1807E199519F
:1011E800DE18D8A4FAEF08F0FCEF08F060EF0DF075
:1011F80020EE2AF05950D9265A50DA22DE6ADD6AE2
:1012080022EE9AF010EE10F05950E1265A50E222E0
:10121800DECFE6FFDECFE6FFDECFE6FFDECFE6FF7E
:1012280020EE0CF05950D9265A50DA22DECFCAF0F7
:10123800DECFCBF0DECFCCF0DECFCDF0010E00015B
:10124800CA25CE6F000ECB21CF6F000ECC21D06FF8
:10125800000ECD21D16F20EE0CF05950D9265A50EE
:10126800DA22CEC0DEFFCFC0DEFFD0C0DEFFD1C0A5
:10127800DEFF0101F151F211D8B445EF09F047EF53
:1012880009F05DEF09F022EE96F010EE08F05950E3
:10129800E1265A50E222DECFE6FFDECFE6FFDECFC0
:1012A800E6FFDECFE6FFF1C1BEF0F2C1BFF0EDEC24
:1012B8002AF020EE39F05950D9265A50DA22040E75
:1012C800DF6E20EE33F05950D9265A50DA22020E3A
:1012D800DE6E000EDD6E20EE35F05950D9265A50DC
:1012E800DA22020EDE6E000EDD6E20EE37F0595067
:1012F800D9265A50DA22050EDF6E20EE38F0595002
:10130800D9265A50DA22110EDF6E090E0001E36F5A
:10131800B6EF05F020EE38F05950D9265A50DA22A7
:10132800040EDF6E59C07DF05AC07EF01CEC11F03F
:1013380009EF01F020EE37F05950D9265A50DA2239
:10134800DF50D8B4AAEF09F0ACEF09F0B0EF09F01C
:10135800BAEC37F060EF0DF020EE38F05950D9268E
:101368005A50DA22040EDF6E010ED86F59C07DF094
:101378005AC07EF01CEC11F00001D819D8A4C7EFB0
:1013880009F0C9EF09F060EF0DF009EF01F0E25143
:10139800CA6FCB6BCB51000AD8B4D5EF09F060EF18
:1013A8000DF0CA51000AD8B49AEF08F0040AD8B46C
:1013B800D4EF06F0020AD8B460EF0DF0010AD8B4F1
:1013C800CAEF08F00E0AD8B48EEF09F0030AD8B4B1
:1013D8008EEF09F0060AD8B49EEF09F060EF0DF021
:1013E80020EE38F05950D9265A50DA22100EDF6E06
:1013F80020EE0CF05950D9265A50DA2202019651A3
:10140800DE180DE19751DE180AE19851DE1807E160
:101418009951DE18D8A413EF0AF015EF0AF060EF1F
:101428000DF020EE2AF05950D9265A50DA22DE6AF9
:10143800DD6A20EE10F05950D9265A50DA22DECF54
:10144800CAF0DECFCBF0DECFCCF0DECFCDF0010E90
:101458000001CA25CE6F000ECB21CF6F000ECC2124
:10146800D06F000ECD21D16F20EE10F05950D92643
:101478005A50DA22CEC0DEFFCFC0DEFFD0C0DEFF7A
:10148800D1C0DEFF20EE0CF05950D9265A50DA228E
:10149800DECFCAF0DECFCBF0DECFCCF0DECFCDF0A2
:1014A800010ECA25CE6F000ECB21CF6F000ECC21C6
:1014B800D06F000ECD21D16F20EE0CF05950D926F7
:1014C8005A50DA22CEC0DEFFCFC0DEFFD0C0DEFF2A
:1014D800D1C0DEFF010ED96F59C07DF05AC07EF031
:1014E8001CEC11F00001D919D8A47DEF0AF07FEFA8
:1014F8000AF060EF0DF0080EE36F60EF0DF020EEDC
:1015080033F05950D9265A50DA22020EDE6E000EF8
:10151800DD6E20EE37F05950D9265A50DA22010EE6
:10152800DF6E060EE36F60EF0DF020EE38F05950D5
:10153800D9265A50DA22100EDF6E20EE0CF05950E0
:10154800D9265A50DA2202019651DE180DE1975138
:10155800DE180AE19851DE1807E19951DE18D8A47F
:10156800B8EF0AF0BAEF0AF060EF0DF020EE2AF0BB
:101578005950D9265A50DA22DE6ADD6A20EE10F078
:101588005950D9265A50DA22DECFCAF0DECFCBF036
:10159800DECFCCF0DECFCDF0010E0001CA25CE6F34
:1015A800000ECB21CF6F000ECC21D06F000ECD21C5
:1015B800D16F20EE10F05950D9265A50DA22CEC0F9
:1015C800DEFFCFC0DEFFD0C0DEFFD1C0DEFF20EEE1
:1015D8000CF05950D9265A50DA22DECFCAF0DECFA5
:1015E800CBF0DECFCCF0DECFCDF0010ECA25CE6F2A
:1015F800000ECB21CF6F000ECC21D06F000ECD2175
:10160800D16F20EE0CF05950D9265A50DA22CEC0AC
:10161800DEFFCFC0DEFFD0C0DEFFD1C0DEFF010E8F
:10162800DA6F59C07DF05AC07EF01CEC11F0000151
:10163800DA19D8A422EF0BF024EF0BF060EF0DF0CD
:101648000A0EE36F60EF0DF020EE37F05950D926FF
:101658005A50DA22DF50D8B434EF0BF036EF0BF0E3
:1016680038EF0BF0B6EF05F020EE38F05950D926D8
:101678005A50DA22040EDF6E010EDB6F59C07DF07E
:101688005AC07EF01CEC11F00001DB19D8A44FEF12
:101698000BF051EF0BF060EF0DF009EF01F0E251A4
:1016A800CA6FCB6BCB51000AD8B45DEF0BF060EF7B
:1016B8000DF0CA51040AD8B483EF0AF0020AD8B46C
:1016C800F4EF09F0010AD8B499EF0AF00B0AD8B47C
:1016D80028EF0BF060EF0DF020EE38F05950D926C6
:1016E8005A50DA22100EDF6E20EE0CF05950D9262F
:1016F8005A50DA2202019651DE180DE19751DE1890
:101708000AE19851DE1807E19951DE18D8A48FEF45
:101718000BF091EF0BF060EF0DF020EE2AF059502E
:10172800D9265A50DA22DE6ADD6A20EE10F05950C6
:10173800D9265A50DA22DECFCAF0DECFCBF0DECF80
:10174800CCF0DECFCDF0010E0001CA25CE6F000E21
:10175800CB21CF6F000ECC21D06F000ECD21D16FE1
:1017680020EE10F05950D9265A50DA22CEC0DEFFAA
:10177800CFC0DEFFD0C0DEFFD1C0DEFF20EE0CF010
:101788005950D9265A50DA22DECFCAF0DECFCBF034
:10179800DECFCCF0DECFCDF0010ECA25CE6F000E25
:1017A800CB21CF6F000ECC21D06F000ECD21D16F91
:1017B80020EE0CF05950D9265A50DA22CEC0DEFF5E
:1017C800CFC0DEFFD0C0DEFFD1C0DEFF010EDC6F70
:1017D80059C07DF05AC07EF01CEC11F00001DC19F4
:1017E800D8A4F9EF0BF0FBEF0BF060EF0DF024EF4E
:1017F8000BF020EE37F05950D9265A50DA22DF5034
:10180800D8B409EF0CF00BEF0CF00DEF0CF0B6EFBD
:1018180005F020EE38F05950D9265A50DA22040E35
:10182800DF6E010EDD6F59C07DF05AC07EF01CECF2
:1018380011F00001DD19D8A424EF0CF026EF0CF00C
:1018480060EF0DF009EF01F0E251CA6FCB6BCB519D
:10185800000AD8B432EF0CF060EF0DF0CA51060A56
:10186800D8B470EF0BF0010AD8B470EF0BF00B0A84
:10187800D8B4FDEF0BF060EF0DF0E251CA6FCB6BFF
:10188800CB51000AD8B44BEF0CF060EF0DF0CA5101
:10189800040AD8B424EF0BF060EF0DF020EE02F04C
:1018A8005950D9265A50DA220101E351DE180DE1C8
:1018B800E451DE180AE1E551DE1807E1E651DE18C9
:1018C800D8A469EF0CF06BEF0CF060EF0DF020EE90
:1018D80006F05950D9265A50DA2202019251DE18E0
:1018E80007E19351DE18D8A47CEF0CF07EEF0CF0E2
:1018F80060EF0DF009EF01F020EE37F05950D926CE
:101908005A50DA22DF50D8B48CEF0CF08EEF0CF07E
:1019180090EF0CF0B6EF05F020EE38F05950D926CC
:101928005A50DA22040EDF6E010EDE6F59C07DF0C8
:101938005AC07EF01CEC11F00001DE19D8A4A7EF04
:101948000CF0A9EF0CF060EF0DF009EF01F0E25197
:10195800CA6FCB6BCB51000AD8B4B5EF0CF060EF6F
:101968000DF0CA51040AD8B452EF0CF0030AD8B4E7
:1019780052EF0CF00B0AD8B480EF0CF060EF0DF0CA
:1019880020EE33F05950D9265A50DA22020EDE6E74
:10199800000EDD6E20EE35F05950D9265A50DA2265
:1019A800020EDE6E000EDD6E20EE37F05950D9269D
:1019B8005A50DA22030EDF6E20EE38F05950D9263D
:1019C8005A50DA22020EDF6E59C07DF05AC07EF0FE
:1019D8001CEC11F0020E0001E36F010EDF6F60EFE7
:1019E8000DF020EE02F05950D9265A50DA22DE6A5C
:1019F800DE6ADE6ADD6A20EE06F05950D9265A50B2
:101A0800DA22DE6ADD6A010EE36FF1EF0CF0E251D3
:101A1800CA6FCB6BCB51000AD8B415EF0DF060EF4D
:101A28000DF0CA51010AD8B4C4EF0CF0030AD8B4B7
:101A3800F5EF0CF060EF0DF020EE2DF05950D9269F
:101A48005A50DA22DF500001CA6FCB6BCB51000A23
:101A5800D8B431EF0DF060EF0DF0CA51000AD8B4D8
:101A68000BEF0DF0010AD8B414EF01F0030AD8B453
:101A780024EF04F0010AD8B4AFEF06F0070AD8B48F
:101A8800CBEF09F0010AD8B453EF0BF0030AD8B42E
:101A980028EF0CF0010AD8B460EF0DF00F0AD8B4A3
:101AA80041EF0CF0010AD8B4ABEF0CF0030AD8B43C
:101AB80009EF01F060EF0DF020EE2EF05950D92615
:101AC8005A50DA220D0EDF6E20EE2DF05950D9262D
:101AD8005A50DA22E3C0DFFF0001DF5112006A0E1C
:101AE800056E000E066E000E086E1C0E076E5CEC8E
:101AF80038F005C060F006C061F01C0E00016019E6
:101B08006111D8A48AEF0DF08CEF0DF01BEF11F0E6
:101B1800000E626F000E686F040E696F6A51206EC6
:101B28001F6A6AC021F06BC022F022C021F0226A2D
:101B3800FF0E2116000E22161F502110236E205072
:101B48002210246E23042410D8B4ADEF0DF0AFEFAB
:101B58000DF0B3EF0DF01BEF11F01BEF11F06C510E
:101B6800206E1F6A20EE6CF0DECF21F0DDCF22F070
:101B780022C021F0226AFF0E2116000E22161F50E5
:101B88002110236E20502210246E080E24182310D2
:101B9800D8B4D1EF0DF0D3EF0DF0D5EF0DF01BEF6A
:101BA80011F0060E6E19D8B4DCEF0DF0DEEF0DF073
:101BB800E0EF0DF01BEF11F0040E6F19D8B4E7EF4A
:101BC8000DF0E9EF0DF0EBEF0DF01BEF11F0080E43
:101BD800666F20EE06F06851D9266951DA22FF0EA9
:101BE8007815236E000E7915246E000E7A15256E71
:101BF800000E7B15266E23C026F0256A246A236A08
:101C080010EE78F0000EE614276EFF0EE614286E2C
:101C1800000EE614296E000EE6142A6E29C02AF07A
:101C280028C029F027C028F0276A78C02BF079C08F
:101C38002CF07AC02DF07BC02EF02CC02BF02DC0DC
:101C48002CF02EC02DF02E6A000E2B142F6EFF0ED6
:101C58002C14306E000E2D14316E000E2E14326EC0
:101C680078C033F079C034F07AC035F07BC036F0F4
:101C7800190E44EF0EF0D890363235323432333202
:101C8800E82E3FEF0EF0FF0E3314376E000E3414BB
:101C9800386E000E3514396E000E36143A6E2F5019
:101CA80037103B6E305038103C6E315039103D6E55
:101CB80032503A103E6E27503B103F6E28503C1071
:101CC800406E29503D10416E2A503E10426E2350FE
:101CD8003F10436E24504010446E25504110456E0D
:101CE80026504210466EDE5043180DE1DE5044186F
:101CF8000AE1DE50451807E1DE504618D8A487EF00
:101D08000EF089EF0EF0B1EF0EF020EE0AF06851F8
:101D1800D9266951DA22DE506C1907E1DE506D19B7
:101D2800D8A499EF0EF09BEF0EF0B1EF0EF020EE75
:101D38000CF06851D9266951DA22DF6A20EE72F078
:101D480068C0E1FF69C0E2FF050EDBCFE3FFE806EC
:101D5800FCE2010E626FBEEF0EF00D0E6827000E5A
:101D6800692366076651D8A4BCEF0EF0BEEF0EF0EB
:101D7800EDEF0DF002010051011102110311D8B469
:101D8800C8EF0EF0CAEF0EF01BEF11F0FF0E0001C6
:101D980082151F6E000E8315206E000E8415216EAD
:101DA800000E8515226E1FC022F0216A206A1F6A64
:101DB80020EE82F0000EDE14236EFF0EDE14246E79
:101DC800000EDE14256E000EDE14266E25C026F0E9
:101DD80024C025F023C024F0236A82C027F083C0E2
:101DE80028F084C029F085C02AF028C027F029C02F
:101DF80028F02AC029F02A6A000E27142B6EFF0E3D
:101E080028142C6E000E29142D6E000E2A142E6E26
:101E180082C02FF083C030F084C031F085C032F02A
:101E2800190E1CEF0FF0D8903232313230322F3287
:101E3800E82E17EF0FF0FF0E2F14336E000E30143C
:101E4800346E000E3114356E000E3214366E2B507F
:101E58003310376E2C503410386E2D503510396EC3
:101E68002E5036103A6E235037103B6E24503810DF
:101E78003C6E255039103D6E26503A103E6E1F506C
:101E88003B103F6E20503C10406E21503D10416E7B
:101E980022503E10426E020100513F180DE10151DF
:101EA80040180AE10251411807E103514218D8A429
:101EB80060EF0FF062EF0FF01BEF11F000016251BD
:101EC800D8A469EF0FF06BEF0FF049EF10F0000E98
:101ED800686F040E696F000E646F040E656F080E5C
:101EE800676F20EE0CF06451D9266551DA2210EEA6
:101EF8000CF06851E1266951E222DE50E65CD8B068
:101F080088EF0FF08AEF0FF08EEF0FF064C068F0E3
:101F180065C069F00D0E6427000E652367076751D9
:101F2800D8A499EF0FF09BEF0FF075EF0FF020EEAC
:101F38000CF06851D9266951DA22DF6A20EE72F076
:101F480068C0E1FF69C0E2FF050EDBCFE3FFE806EA
:101F5800FCE2FF0E78151F6E000E7915206E000E3C
:101F68007A15216E000E7B15226E1FC022F0216AA1
:101F7800206A1F6A20EE78F0000EDE14236EFF0E32
:101F8800DE14246E000EDE14256E000EDE14266E9E
:101F980025C026F024C025F023C024F0236A78C089
:101FA80027F079C028F07AC029F07BC02AF028C031
:101FB80027F029C028F02AC029F02A6A000E271421
:101FC8002B6EFF0E28142C6E000E29142D6E000E99
:101FD8002A142E6E78C02FF079C030F07AC031F014
:101FE8007BC032F0190EFEEF0FF0D890323231324A
:101FF80030322F32E82EF9EF0FF0FF0E2F14336E28
:10200800000E3014346E000E3114356E000E32148A
:10201800366E2B503310376E2C503410386E2D50CE
:102028003510396E2E5036103A6E235037103B6EED
:10203800245038103C6E255039103D6E26503A1009
:102048003E6E1F503B103F6E20503C10406E21509A
:102058003D10416E22503E10426E20EE06F068514F
:10206800D9266951DA223FC0DEFF40C0DEFF41C0F9
:10207800DEFF42C0DEFF20EE0AF06851D926695122
:10208800DA226CC0DEFF6DC0DDFF71057011D8A4C7
:1020980050EF10F052EF10F01BEF11F0720E176EA8
:1020A800000E186E080E1A6E060E196E16EC20F049
:1020B8000001636F6305D8A464EF10F066EF10F0B9
:1020C800B1EF0DF020EE72F010EE7CF0050EDBCFD4
:1020D800E3FFE806FCE2720E056E000E066ED10EF6
:1020E800076E020E086E000E0A6E060E096E93EC5D
:1020F80039F078C082F079C083F07AC084F07BC070
:1021080085F0FF0E020100151F6E000E0115206EEE
:10211800000E0215216E000E0315226E1FC022F05C
:10212800216A206A1F6A000E0015236EFF0E011532
:10213800246E000E0215256E000E0315266E25C0AE
:1021480026F024C025F023C024F0236A00C227F01B
:1021580001C228F002C229F003C22AF028C027F0E1
:1021680029C028F02AC029F02A6A000E27142B6EED
:10217800FF0E28142C6E000E29142D6E000E2A1442
:102188002E6E00C22FF001C230F002C231F003C23D
:1021980032F0190ED5EF10F0D89032323132303299
:1021A8002F32E82ED0EF10F0FF0E2F14336E000EF2
:1021B8003014346E000E3114356E000E3214366E43
:1021C8002B503310376E2C503410386E2D5035107C
:1021D800396E2E5036103A6E235037103B6E24500D
:1021E80038103C6E255039103D6E26503A103E6E20
:1021F8001F503B100001786F20503C10796F215020
:102208003D107A6F22503E107B6F020E716F000EE8
:10221800706F6A0E056E000E066E000E086E1C0EBC
:10222800076EBBEC39F011EC32F01BEF11F0120025
:102238007DC0D9FF7EC0DAFFDECF7FF0DDCF80F032
:1022480000017F51826F816B7DC0D9FF7EC0DAFFAC
:10225800DECF83F0DDCF84F084C083F0846BFF0E83
:102268008317000E841781518311AA6F825184113C
:10227800AB6F20EE06F07D51D9267E51DA22DECFF3
:102288007FF0DDCF80F07F51826F816B20EE06F00A
:102298007D51D9267E51DA22DECF83F0DDCF84F05E
:1022A80084C083F0846BFF0E8317000E841781515E
:1022B8008311AC6F82518411AD6F20EE10F07D5107
:1022C800D9267E51DA22DECF7FF0DECF80F0DECF56
:1022D80081F0DECF82F0FF0E7F15836F000E801530
:1022E800846F000E8115856F000E8215866F83C07E
:1022F80086F0856B846B836B20EE10F07D51D926B8
:102308007E51DA22000EDE14876FFF0EDE14886F0E
:10231800000EDE14896F000EDE148A6F89C08AF001
:1023280088C089F087C088F0876B20EE10F07D5157
:10233800D9267E51DA22DECF8BF0DECF8CF0DECFCD
:102348008DF0DECF8EF08CC08BF08DC08CF08EC0FF
:102358008DF08E6B000E8B158F6FFF0E8C15906FA6
:10236800000E8D15916F000E8E15926F20EE10F0F5
:102378007D51D9267E51DA22DECF93F0DECF94F05C
:10238800DECF95F0DECF96F0190ED0EF11F0D89091
:102398009633953394339333E82ECBEF11F0FF0E39
:1023A8009315976F000E9415986F000E9515996FF9
:1023B800000E96159A6F8F5197119B6F9051981137
:1023C8009C6F915199119D6F92519A119E6F8751EF
:1023D8009B119F6F88519C11A06F89519D11A16F0E
:1023E8008A519E11A26F83519F11AE6F8451A01123
:1023F800AF6F8551A111B06F8651A211B16F20EE58
:102408000CF07D51D9267E51DA22DECF7FF0DECF67
:1024180080F0DECF81F0DECF82F0FF0E7F15836F74
:10242800000E8015846F000E8115856F000E8215D1
:10243800866F83C086F0856B846B836B20EE0CF00F
:102448007D51D9267E51DA22000EDE14876FFF0EE9
:10245800DE14886F000EDE14896F000EDE148A6F9A
:1024680089C08AF088C089F087C088F0876B20EE21
:102478000CF07D51D9267E51DA22DECF8BF0DECFEB
:102488008CF0DECF8DF0DECF8EF08CC08BF08DC05F
:102498008CF08EC08DF08E6B000E8B158F6FFF0E3B
:1024A8008C15906F000E8D15916F000E8E15926F22
:1024B80020EE0CF07D51D9267E51DA22DECF93F042
:1024C800DECF94F0DECF95F0DECF96F0190E72EFE6
:1024D80012F0D8909633953394339333E82E6DEFFA
:1024E80012F0FF0E9315976F000E9415986F000E5B
:1024F8009515996F000E96159A6F8F5197119B6FCE
:10250800905198119C6F915199119D6F92519A1108
:102518009E6F87519B119F6F88519C11A06F8951A5
:102528009D11A16F8A519E11A26F83519F11B26FA5
:102538008451A011B36F8551A111B46F8651A211B6
:10254800B56FB691F10EB617B6510F0B5009B66FAD
:1025580020EE1AF07D51D9267E51DA22DECF7FF0A7
:10256800DDCF80F07F51826F816B20EE1AF07D51B4
:10257800D9267E51DA22DECF83F0DDCF84F084C005
:1025880083F0846BFF0E8317000E8417815183112B
:10259800B86F82518411B96F000EBB6F000EBA6F0D
:1025A800000EBD6F000EBC6F20EE38F07D51D926AD
:1025B8007E51DA22DF507F6F060E7F17D8B4E7EF1F
:1025C80012F0E9EF12F0F0EF12F0000E0101F06FD7
:1025D800000EEF6FCCEF13F020EE2CF07D51D926D2
:1025E8007E51DA22DE04D8A4FCEF12F0FEEF12F0DE
:1025F80000EF13F0E9EF12F020EE2AF07D51D92612
:102608007E51DA22DECFEFF1DDCFF0F10101EF519B
:10261800F011D8B412EF13F014EF13F0CCEF13F05D
:10262800000120EE18F07D51D9267E51DA22DE50C5
:10263800DE10D8A422EF13F024EF13F02EEF13F0DE
:1026480020EE18F07D51D9267E51DA22010EDE6E79
:10265800000EDD6E20EE18F07D51D9267E51DA226B
:102668000101EF51DE5CF051DE58D8B03EEF13F0B7
:1026780040EF13F04BEF13F0000120EE18F07D51FE
:10268800D9267E51DA22DECFEFF1DDCFF0F100015D
:1026980020EE1CF07D51D9267E51DA220101EF513E
:1026A800DE5CF051DE58D8B05CEF13F05EEF13F04B
:1026B80069EF13F0000120EE1CF07D51D9267E5100
:1026C800DA22DECFEFF1DDCFF0F1000120EE25F0C8
:1026D8007D51D9267E51DA22DECFA3F0DDCFA4F0DA
:1026E80020EE25F07D51D9267E51DA22DECF7FF00B
:1026F800DDCF80F00101EF5100017F270101F0518A
:102708000001802320EE25F07D51D9267E51DA2262
:102718007FC0DEFF80C0DDFF20EE2AF07D51D92684
:102728007E51DA22DECF7FF0DDCF80F00101EF515C
:1027380000017F5F0101F0510001805B20EE27F06E
:102748007D51D9267E51DA227FC0DEFF80C0DDFFB1
:1027580020EE27F07D51D9267E51DA22DE50DE1098
:10276800D8A4B9EF13F0BBEF13F0CCEF13F020EEC1
:1027780038F07D51D9267E51DA2210EE38F07D519D
:10278800E1267E51E222E7500809DF6ECCEF13F014
:10279800000120EE38F07D51D9267E51DA22DF5033
:1027A800B76F140E0101EF250001A76F000E01019C
:1027B800F0210001A86F20EE02F07D51D9267E514C
:1027C800DA22DECF43F0DECF44F0DECF45F0DECFB5
:1027D80046F0060E476EDAEC1EF00001A96FA90557
:1027E800D8A4F9EF13F0FBEF13F04AEF14F0AA0E98
:1027F800056E000E066E000E086E140E076EBBEC1A
:1028080039F00101EF51F011D8B40DEF14F00FEFCA
:1028180014F019EF14F0A3C005F0A4C006F0EFC13E
:1028280007F0F0C108F0BBEC39F0060E0001A7254F
:10283800A56F000EA821A66F000E186E1A0E176E4F
:10284800080EA725196E000EA8211A6EA5C01BF048
:10285800A6C01CF0B9EC36F017C0A5F018C0A6F059
:10286800A50E056E000E066E000E086E020E076EAF
:10287800000E0A6E320E096E26EC38F0A7C025F05D
:10288800A8C026F047EC35F00001A96FA905D8B417
:1028980050EF14F052EF14F086EF14F0120EA9194D
:1028A800D8B459EF14F05BEF14F086EF14F020EE73
:1028B80037F07D51D9267E51DA2210EE37F07D515E
:1028C800E1267E51E222E7507F6F7F05DF6E20EE22
:1028D80033F07D51D9267E51DA22DE50DE10D8A49D
:1028E80078EF14F07AEF14F0B2EF14F020EE33F032
:1028F8007D51D9267E51DA22020EDE6E000EDD6E83
:10290800B2EF14F020EE10F07D51D9267E51DA2274
:10291800DECF7FF0DECF80F0DECF81F0DECF82F039
:102928000101EF5100017F25836F0101F051000182
:102938008021846F000E8121856F000E8221866FB1
:1029480020EE10F07D51D9267E51DA2283C0DEFFB9
:1029580084C0DEFF85C0DEFF86C0DEFFA9511200FD
:10296800000E01016A6F000E696FD6EC3AF00101A2
:10297800686F68C117F0186A000E1A6E000E196E9B
:1029880049EC34F017C06BF118C06CF101016B51C0
:102998006C11D8B4D2EF14F0D4EF14F0D6EF14F0D1
:1029A80023EF18F0A60E056E020E066E000E086ED6
:1029B800140E076E5CEC38F00201A6390F0B040AFE
:1029C800D8B4E9EF14F0EBEF14F0EDEF14F023EFC7
:1029D80018F0FF0EB6150101206F000E0201B715A1
:1029E8000101216F000E0201B8150101226F000ECE
:1029F8000201B9150101236F20C123F1226B216B5C
:102A0800206B22EEB6F0000EDE14246FFF0EDE14EB
:102A1800256F000EDE14266F000EDE14276F26C108
:102A280027F125C126F124C125F1246BB6C228F16E
:102A3800B7C229F1B8C22AF1B9C22BF129C128F1CC
:102A48002AC129F12BC12AF12B6B000E28152C6FF6
:102A5800FF0E29152D6F000E2A152E6F000E2B154F
:102A68002F6FB6C230F1B7C231F1B8C232F1B9C274
:102A780033F1190E45EF15F0D89033333233313333
:102A88003033E82E40EF15F0FF0E3015346F000E8E
:102A98003115356F000E3215366F000E3315376F4E
:102AA8002C513411386F2D513511396F2E51361183
:102AB8003A6F2F5137113B6F245138113C6F255114
:102AC80039113D6F26513A113E6F27513B113F6F27
:102AD80020513C110201B66F010121513D11020143
:102AE800B76F010122513E110201B86F0101235154
:102AF8003F110201B96FFF0EB2150101206F000EE0
:102B08000201B3150101216F000E0201B415010184
:102B1800226F000E0201B5150101236F20C123F1B8
:102B2800226B216B206B22EEB2F0000EDE14246FB4
:102B3800FF0EDE14256F000EDE14266F000EDE1465
:102B4800276F26C127F125C126F124C125F1246B61
:102B5800B2C228F1B3C229F1B4C22AF1B5C22BF12D
:102B680029C128F12AC129F12BC12AF12B6B000EAA
:102B780028152C6FFF0E29152D6F000E2A152E6FA4
:102B8800000E2B152F6FB2C230F1B3C231F1B4C2AF
:102B980032F1B5C233F1190ED7EF15F0D8903333AF
:102BA800323331333033E82ED2EF15F0FF0E3015C3
:102BB800346F000E3115356F000E3215366F000E6A
:102BC8003315376F2C513411386F2D513511396F3A
:102BD8002E5136113A6F2F5137113B6F245138114E
:102BE8003C6F255139113D6F26513A113E6F2751DF
:102BF8003B113F6F20513C110201B26F010121517D
:102C08003D110201B36F010122513E110201B46F5F
:102C1800010123513F110201B56FB2290AE1B3291D
:102C280008E1B42906E1B529D8A41DEF16F01FEF75
:102C380016F021EF16F023EF18F00051B6190FE146
:102C48000151B7190CE10251B81909E10351B91939
:102C5800D8B431EF16F033EF16F0E0EF16F0B651B6
:102C6800B711B811B911D8B43CEF16F03EEF16F011
:102C7800E0EF16F0B6290CE1B7290AE1B82908E116
:102C8800B929D8B44AEF16F04CEF16F0E0EF16F079
:102C9800FF0E00110101206FFF0E02010111010159
:102CA800216FFF0E020102110101226F000E0201C5
:102CB80003110101236F0201B6510101201915E129
:102CC8000201B7510101211910E10201B8510101B6
:102CD80022190BE10201B95101012319D8B477EF88
:102CE80016F079EF16F0E0EF16F0FF0E0201001172
:102CF8000101206FFF0E020101110101216F000E79
:102D0800020102110101226F000E020103110101EB
:102D1800236F0201B6510101201915E10201B751D3
:102D28000101211910E10201B851010122190BE139
:102D38000201B95101012319D8B4A5EF16F0A7EF84
:102D480016F0E0EF16F0FF0E020100110101206FEE
:102D5800020101510101216F020102510101226F9B
:102D6800020103510101236F0201B651010120192B
:102D780015E10201B7510101211910E10201B85111
:102D8800010122190BE10201B95101012319D8B43B
:102D9800D0EF16F0D2EF16F0E0EF16F00201B6050C
:102DA80009E1E00EB919B711B811D8A4DEEF16F091
:102DB800E0EF16F023EF18F00201A8510101216F8E
:102DC800206B22EEA8F0DECF22F1DDCF23F123C164
:102DD80022F1236BFF0E2217000E23172051221118
:102DE8000201A86F0101215123110201A96FA65107
:102DF8000F0B0101206FD8902037D8902035686FCD
:102E08000201A6510F0B0101206F050E20610FEF83
:102E180017F011EF17F013EF17F023EF18F0020176
:102E2800A6510F0B0101206F050E20651EEF17F04C
:102E380020EF17F008EF18F0EC0E6825056E066A0B
:102E4800FF0E06226BEC39F008EF18F00201B651BC
:102E5800B711B811B911D8A434EF17F036EF17F03D
:102E680038EF17F023EF18F0010168510201A85D4F
:102E78000101696F0201A951D8A0A90501016A6F72
:102E880069C117F06AC118F0000E1A6E000E196EAB
:102E980049EC34F017C06BF118C06CF101016B51AB
:102EA8006C11D8A45AEF17F05CEF17F065EF17F024
:102EB800A60E00018E6F020E8F6FAEEC2EF023EF80
:102EC80018F0400E0001606F010E616F970E626F7F
:102ED800FE0E636F6BC164F06CC165F043EC39F0B2
:102EE80023EF18F068510201A85D0101696F020122
:102EF800A951D8A0A90501016A6F69C105F06AC185
:102F080006F0B4EC30F005C06BF106C06CF169C195
:102F180017F06AC118F06BC119F06CC11AF049ECCE
:102F280034F017C06BF118C06CF16BC18AF06CC13A
:102F38008BF06CEC29F023EF18F068510201A85DC2
:102F48000101696F0201A951D8A0A90501016A6FA1
:102F580069C105F06AC106F0B4EC30F005C06BF148
:102F680006C06CF169C117F06AC118F06BC119F09D
:102F78006CC11AF049EC34F017C06BF118C06CF151
:102F880001016B516C11D8A4CCEF17F0CEEF17F0FC
:102F980023EF18F00201B6290CE1B7290AE1B82994
:102FA80008E1B929D8B4DBEF17F0DDEF17F023EF0C
:102FB80018F0B651B711B811B911D8B4E6EF17F037
:102FC800E8EF17F023EF18F0B2C259F2B3C25AF281
:102FD800B4C25BF2B5C25CF259C2E4F05AC2E5F081
:102FE8005BC2E6F05CC2E7F069C1E8F06AC1E9F0EB
:102FF800E3EC1AF023EF18F0A8C205F0A9C206F016
:103008006BEC39F023EF18F00201AF510101206F8A
:10301800216B2151000AD8B414EF18F000EF18F012
:103028002051010AD8B42AEF17F0070AD8B4A1EF43
:1030380017F0170AD8B476EF17F000EF18F012005F
:1030480036C0D9FF37C0DAFFDECFF6FFDDCFF7FF96
:103058000800F550250AD8A434EF18F036EF18F018
:10306800CEEF1AF036C0D9FF37C0DAFFDE2A000EDD
:10307800DD22000E0101E86F000EE76FE7C1F7F0EF
:10308800E969EA69000E3F6E000E3E6E77EF18F0B0
:103098000001F78336C0D9FF37C0DAFFDE2A000EF9
:1030A800DD2277EF18F0000E3F6E010E3E6E77EFCF
:1030B80018F036C0D9FF37C0DAFFDECFF6FFDDCF14
:1030C800F7FF0800F5503A6E3B6A3B50000AD8B447
:1030D80070EF18F057EF18F03A50300AD8B44CEFA8
:1030E80018F057EF18F03E503F10D8B47EEF18F0A4
:1030F80080EF18F05DEF18F036C00BF037C00CF019
:1031080038C00DF039C00EF0DDEC32F00BC0E7F13D
:103118000CC0E8F10101E8BF96EF18F094EF18F041
:103128009DEF18F00001F7810101E76DE81FD8B0A5
:10313800E82B36C0D9FF37C0DAFFDECFF6FFDDCF88
:10314800F7FF0800F5502E0AD8A4ADEF18F0AFEF3E
:1031580018F0C4EF18F036C0D9FF37C0DAFFDE2AFE
:10316800000EDD2236C00BF037C00CF038C00DF071
:1031780039C00EF0DDEC32F00BC0E9F10CC0EAF119
:1031880036C0D9FF37C0DAFFDECF47F0DDCF48F0D1
:1031980047C0F6FF48C0F7FF0800F5CF46F0E1EF5B
:1031A80018F0474A482A06EF19F0690E466E06EFEE
:1031B80019F0000E466E06EF19F046503A6E3B6A5B
:1031C8003B50000AD8B4EBEF18F0DDEF18F03A5096
:1031D800580AD8B4D9EF18F03C0AD8B4D9EF18F087
:1031E8000D0AD8B4D9EF18F0050AD8B4D5EF18F0FD
:1031F800190AD8B4D9EF18F00D0AD8B4D9EF18F0D5
:10320800DDEF18F047C0F6FF48C0F7FF0800F5509B
:10321800640AD8B412EF19F014EF19F059EF19F045
:1032280047C0F6FF48C0F7FF0800F550690AD8A460
:1032380020EF19F022EF19F08CEF19F059EF19F07F
:1032480038C0D9FF39C0DAFFDFCF3AF0020EDE26E8
:10325800DFCF3BF0000EDD223AC0D9FF3BC0DAFFDA
:10326800DECF42F0DDCF43F0000E43BEFF0E446ECA
:10327800456E6EEF19F038C0D9FF39C0DAFFDFCFDD
:103288003AF0040EDE26DFCF3BF0000EDD223AC016
:10329800D9FF3BC0DAFFDECF42F0DECF43F0DECF0E
:1032A80044F0DECF45F06EEF19F046503A6E3B6AB7
:1032B8003B50000AD8B463EF19F06EEF19F03A509A
:1032C800690AD8B424EF19F0050AD8B43FEF19F009
:1032D8006EEF19F0010E47243A6E000E48203B6E3F
:1032E80036C0D9FF37C0DAFF3AC0DEFF3BC0DDFF8A
:1032F80034C020F035C021F042C022F043C023F092
:1033080044C024F045C025F040EC21F0E2EF1AF06B
:1033180047C0F6FF48C0F7FF0800F550780AD8B450
:1033280098EF19F09AEF19F0EEEF19F047C0F6FF91
:1033380048C0F7FF0800F550580AD8B4A6EF19F0AE
:10334800A8EF19F0EEEF19F047C0F6FF48C0F7FFF5
:103358000800F550750AD8A4B4EF19F0B6EF19F0C3
:1033680058EF1AF0EEEF19F038C0D9FF39C0DAFF7C
:10337800DFCF3AF0020EDE26DFCF3BF0000EDD2273
:103388003AC0D9FF3BC0DAFFDECF3CF0DDCF3DF0DD
:103398003CC042F03DC043F0446A456A03EF1AF06E
:1033A80038C0D9FF39C0DAFFDFCF3AF0040EDE2685
:1033B800DFCF3BF0000EDD223AC0D9FF3BC0DAFF79
:1033C800DECF42F0DECF43F0DECF44F0DECF45F073
:1033D80003EF1AF046503A6E3B6A3B50000AD8B4E5
:1033E800F8EF19F003EF1AF03A50690AD8B4B8EFB9
:1033F80019F0050AD8B4D4EF19F003EF1AF0010E4A
:1034080047243A6E000E48203B6E36C0D9FF37C0BD
:10341800DAFF3AC0DEFF3BC0DDFF3AEF1AF034C0F6
:1034280020F035C021F042C022F043C023F044C050
:1034380024F045C025F053EC2CF0E2EF1AF034C02C
:1034480020F035C021F042C022F043C023F044C030
:1034580024F045C025F047C0F6FF48C0F7FF080034
:10346800F5CF26F03EEC24F0E2EF1AF047C0F6FF65
:1034780048C0F7FF0800F5503A6E3B6A3B50000A17
:10348800D8B449EF1AF058EF1AF03A50580AD8B49D
:1034980023EF1AF02D0AD8B413EF1AF00D0AD8B496
:1034A80023EF1AF058EF1AF036C0D9FF37C0DAFF09
:1034B800DECFF6FFDDCFF7FF0800F550730AD8B46A
:1034C80068EF1AF06AEF1AF085EF1AF036C0D9FFE4
:1034D80037C0DAFFDECF05F0DDCF06F0E50E076E68
:1034E800FF0E086E000E0A6E030E096EA2EC31F094
:1034F80005500610D8A483EF1AF085EF1AF0C5EF2F
:103508001AF036C0D9FF37C0DAFFDECFF6FFDDCFBD
:10351800F7FF0800F550730AD8B495EF1AF097EF43
:103528001AF09DEF1AF0000E416E030E406EA1EFE7
:103538001AF0000E416E010E406E36C0D9FF37C03A
:10354800DAFF4050DE264150DD2234C00EF035C08F
:103558000FF038C0D9FF39C0DAFFDFCF3AF0020EDA
:10356800DE26DFCF3BF0000EDD223AC0D9FF3BC09C
:10357800DAFFDECF10F0DDCF11F0A2EC28F0E2EF99
:103588001AF036C0D9FF37C0DAFFDE2A000EDD2276
:10359800E2EF1AF036C0D9FF37C0DAFFDECFF6FF08
:1035A800DDCFF7FF0800F550056E066A34C007F056
:1035B80035C008F078EC32F0C5EF1AF01200000EB2
:1035C8000001EA6F000E0101E36F000EE46F000EC8
:1035D800E56F000EE66F000EF26F000EF16F920EAF
:1035E800056E020E066E000E086E140E076E5CEC79
:1035F80038F0000E596E000E5A6E02019451951162
:10360800D8B409EF1BF00BEF1BF079EF1DF09251C6
:103618009311D8B412EF1BF014EF1BF079EF1DF0E3
:1036280092510101016F006B92C202F193C203F142
:1036380003C102F1036BFF0E0217000E03170051BE
:1036480002110201926F0101015103110201936FEE
:1036580094510101016F006B22EE94F0DECF02F16C
:10366800DDCF03F103C102F1036BFF0E0217000E59
:103678000317005102110201946F01010151031156
:103688000201956FF5C1EBF0F6C1ECF06FEF1BF09E
:10369800EBC0D9FFECC0DAFFDE500201941907E154
:1036A800DE509519D8A45BEF1BF05DEF1BF063EFBC
:1036B8001BF0EBC059F0ECC05AF087EF1BF000018B
:1036C80020EE2FF0EB51D926EC51DA22DECFEBF0C9
:1036D800DDCFECF0EA2B0001EB51EC11D8B477EF19
:1036E8001BF079EF1BF087EF1BF0EA51800A01010C
:1036F800006FF851800A005DD8A085EF1BF087EFB6
:103708001BF04CEF1BF059505A10D8B48EEF1BF039
:1037180090EF1BF079EF1DF020EE06F05950D926F6
:103728005A50DA2202019251DE1809E19351DE184B
:10373800D8B4A1EF1BF0A3EF1BF0B4EF1BF020EE01
:1037480002F05950D9265A50DA22DE50DE10DE1027
:10375800DE10D8A4B2EF1BF0B4EF1BF079EF1DF028
:10376800E4C0E3F1E5C0E4F1E6C0E5F1E7C0E6F165
:103778009E390F0B0101006F016BD890003701379C
:10378800D8900037013700510001E85D0101F16F61
:1037980001510001E9590101F26F2AEC25F0E80610
:1037A800D8A4D9EF1BF0DBEF1BF079EF1DF0020175
:1037B8009FA3E1EF1BF0E3EF1BF0FEEF1BF09FA9C7
:1037C800E8EF1BF0EAEF1BF0F4EF1BF020EE2EF011
:1037D8005950D9265A50DA22050EDF6E51EF1CF0E7
:1037E80020EE2EF05950D9265A50DA22030EDF6EF9
:1037F80051EF1CF09FA103EF1CF005EF1CF020EF28
:103808001CF09FA90AEF1CF00CEF1CF016EF1CF03F
:1038180020EE2EF05950D9265A50DA22070EDF6EC4
:1038280051EF1CF020EE2EF05950D9265A50DA22CA
:10383800060EDF6E51EF1CF09FA525EF1CF027EF59
:103848001CF042EF1CF09FA92CEF1CF02EEF1CF08F
:1038580038EF1CF020EE2EF05950D9265A50DA22B3
:103868000A0EDF6E51EF1CF020EE2EF05950D926CB
:103878005A50DA22090EDF6E51EF1CF09FA947EF6C
:103888001CF049EF1CF051EF1CF020EE2EF05950BF
:10389800D9265A50DA22040EDF6EFF0E9A1501015E
:1038A800006F000E02019B150101016F000E02015D
:1038B8009C150101026F000E02019D150101036FA5
:1038C80000C103F1026B016B006B22EE9AF0000E4F
:1038D800DE14046FFF0EDE14056F000EDE14066F93
:1038E800000EDE14076F06C107F105C106F104C119
:1038F80005F1046B9AC208F19BC209F19CC20AF156
:103908009DC20BF109C108F10AC109F10BC10AF105
:103918000B6B000E08150C6FFF0E09150D6F000ECE
:103928000A150E6F000E0B150F6F9AC210F19BC28D
:1039380011F19CC212F19DC213F1190EA9EF1CF0EE
:10394800D8901333123311331033E82EA4EF1CF040
:10395800FF0E1015146F000E1115156F000E1215BD
:10396800166F000E1315176F0C511411186F0D51A7
:103978001511196F0E5116111A6F0F5117111B6F70
:10398800045118111C6F055119111D6F06511A1198
:103998001E6F07511B111F6F00511C1102019A6FF6
:1039A800010101511D1102019B6F010102511E11FC
:1039B80002019C6F010103511F1102019D6FFF0E4F
:1039C80096150101006F000E020197150101016FA4
:1039D800000E020198150101026F000E02019915EF
:1039E8000101036F00C103F1026B016B006B22EE52
:1039F80096F0000EDE14046FFF0EDE14056F000E45
:103A0800DE14066F000EDE14076F06C107F105C14C
:103A180006F104C105F1046B96C208F197C209F1D9
:103A280098C20AF199C20BF109C108F10AC109F15A
:103A38000BC10AF10B6B000E08150C6FFF0E091570
:103A48000D6F000E0A150E6F000E0B150F6F96C244
:103A580010F197C211F198C212F199C213F1190E1F
:103A68003BEF1DF0D8901333123311331033E82E87
:103A780036EF1DF0FF0E1015146F000E1115156F9F
:103A8800000E1215166F000E1315176F0C51141136
:103A9800186F0D511511196F0E5116111A6F0F511C
:103AA80017111B6F045118111C6F055119111D6F47
:103AB80006511A111E6F07511B111F6F00511C115F
:103AC8000201966F010101511D110201976F010159
:103AD80002511E110201986F010103511F110201C9
:103AE800996F28EC00F079EF1DF01200010E00012B
:103AF800626F000E616F000E646F080E636F060E32
:103B0800656F040E666F010E686F000E676F690EB1
:103B1800056E000E066ED10E076E020E086E000EC0
:103B28000A6E060E096E93EC39F0FF0E02010015BD
:103B3800236E000E0115246E000E0215256E000E70
:103B48000315266E23C026F0256A246A236A000E10
:103B58000015276EFF0E0115286E000E0215296E3E
:103B6800000E03152A6E29C02AF028C029F027C0A4
:103B780028F0276A00C22BF001C22CF002C22DF0F7
:103B880003C22EF02CC02BF02DC02CF02EC02DF02F
:103B98002E6A000E2B142F6EFF0E2C14306E000EA2
:103BA8002D14316E000E2E14326E00C233F001C295
:103BB80034F002C235F003C236F0190EE9EF1DF0F9
:103BC800D8903632353234323332E82EE4EF1DF0F5
:103BD800FF0E3314376E000E3414386E000E351491
:103BE800396E000E36143A6E2F5037103B6E305037
:103BF80038103C6E315039103D6E32503A103E6EDE
:103C080027503B103F6E28503C10406E29503D1005
:103C1800416E2A503E10426E23503F1000016F6FD4
:103C280024504010706F25504110716F265042107B
:103C3800726FFF0E1F14236E000E2014246E000EE8
:103C48002114256E000E2214266E23C026F0256A44
:103C5800246A236A000E1F14276EFF0E2014286E94
:103C6800000E2114296E000E22142A6E29C02AF093
:103C780028C029F027C028F0276A1FC02BF020C0D1
:103C88002CF021C02DF022C02EF02CC02BF02DC01E
:103C98002CF02EC02DF02E6A000E2B142F6EFF0E66
:103CA8002C14306E000E2D14316E000E2E14326E50
:103CB8001FC033F020C034F021C035F022C036F0E8
:103CC800190E6CEF1EF0D89036323532343233325A
:103CD800E82E67EF1EF0FF0E3314376E000E341413
:103CE800386E000E3514396E000E36143A6E2F50A9
:103CF80037103B6E305038103C6E315039103D6EE5
:103D080032503A103E6E27503B103F6E28503C1000
:103D1800406E29503D10416E2A503E10426E23508D
:103D28003F10796F245040107A6F255041107B6FF7
:103D3800265042107C6F000E736F000E746F000ED9
:103D4800756F000E766F000E776F000E786F0B0E92
:103D5800176EFE0E186E080E1A6E060E196E16EC09
:103D680020F00001606F6005D8A4BDEF1EF0BFEF22
:103D78001EF0D8EF1EF0610E056E000E066E000EE6
:103D8800086E1C0E076EBBEC39F011EC32F0000126
:103D9800606F6005D8A4D3EF1EF0D5EF1EF0D8EF02
:103DA8001EF0050ED9EF1EF060511200000E566E7F
:103DB80002010051011102110311D8A4E6EF1EF00F
:103DC800E8EF1EF0F1EF1EF0110E4718D8A4EFEF40
:103DD8001EF0F1EF1EF0B1EF1FF000050BE17F0EB2
:103DE800031901110211D8B4FCEF1EF0FEEF1EF00A
:103DF800B1EF1FF043280CE144280AE1452808E107
:103E08004628D8B40AEF1FF00CEF1FF0B4EF1FF0EC
:103E1800000E4310486E000E4410496E000E451007
:103E28004A6EFF0E46104B6E48280CE149280AE1FD
:103E38004A2808E14B28D8B424EF1FF026EF1FF0DA
:103E4800B4EF1FF0000E4310486E000E4410496E88
:103E5800FF0E45104A6EFF0E46104B6E48280CE1C7
:103E680049280AE14A2808E14B28D8B43EEF1FF058
:103E780040EF1FF0B4EF1FF0000E4310486EFF0E26
:103E88004410496EFF0E45104A6EFF0E46104B6EE9
:103E980048280CE149280AE14A2808E14B28D8B407
:103EA80058EF1FF05AEF1FF0B4EF1FF043500019FE
:103EB800486E44500119496E455002194A6E4650E1
:103EC80003194B6E0C5148144C6E0D5149144D6E2C
:103ED8000E514A144E6E0F514B144F6E4C504D10EC
:103EE8004E104F10D8A47BEF1FF07DEF1FF087EF27
:103EF8001FF043C050F044C051F045C052F046C0D6
:103F080053F08FEF1FF010C250F011C251F012C2DF
:103F180052F013C253F050C005F051C006F052C021
:103F280007F053C008F0F0EC37F005C054F006C0B5
:103F380055F054505510D8A4A4EF1FF0A6EF1FF069
:103F4800B8EF1FF050C01FF051C020F052C021F050
:103F580053C022F07AEC1DF0566E565015EF20F043
:103F68000B0E546EFE0E556E54C017F055C018F067
:103F7800080E1A6E000E196E16EC20F0566E5604D6
:103F8800D8A4C9EF1FF0CBEF1FF0B1EF1FF0450E1B
:103F9800066E000E056E5CEC3DF0000E066E000E1F
:103FA800056E5CEC3DF0000E056E400E066E550E7B
:103FB800076EAA0E086E2FEC3DF0400E97EC3DF010
:103FC800475097EC3DF0000E066E000E056E5CEC57
:103FD8003DF000C205F001C206F002C207F003C2BC
:103FE80008F02FEC3DF043C005F044C006F045C092
:103FF80007F046C008F02FEC3DF000C2B2F201C253
:10400800B3F202C2B4F203C2B5F243C0B6F244C07E
:10401800B7F245C0B8F246C0B9F247C0AFF2B1EF47
:104028001FF0120002013BB51CEF20F01EEF20F03C
:1040380021EF20F0020E3FEF21F057505810D8B46E
:1040480028EF20F02AEF20F03CEF20F057C0D9FFEE
:1040580058C0DAFFDECF1BF0DDCF1CF01BA037EF16
:1040680020F039EF20F03CEF20F0030E3FEF21F075
:104078000C0E0E01E25D1A0EE359D8A046EF20F0AF
:1040880048EF20F062EF20F0D2A64DEF20F04FEF7E
:1040980020F052EF20F0040E3FEF21F00DEC26F057
:1040A8000C0E0E01E25D1A0EE359D8A05EEF20F067
:1040B80060EF20F062EF20F039EF20F047EC23F0BA
:1040C80005C01DF006C01EF01D501E10D8A46FEFCD
:1040D80020F071EF20F073EF20F039EF20F01DC0D1
:1040E800D9FF1EC0DAFFDECF1BF0DDCF1CF0010EBA
:1040F8001B12000E1C121DC0D9FF1EC0DAFF1BC008
:10410800DEFF1CC0DDFF20EE02F01D50D9261E5038
:10411800DA22DECFE2FEDDCFE3FEA1EC3DF0060EB3
:10412800B2EC3DF017C0F6FF18C0F7FFF86A0F0EA3
:10413800F76403D00800F55005D0F6CFE9FFF7CFB4
:10414800EAFFEF50B2EC3DF0010E17241B6E000E93
:1041580018201C6E1BC0F6FF1CC0F7FFF86A0F0E74
:10416800F76403D00800F55005D0F6CFE9FFF7CF84
:10417800EAFFEF50B2EC3DF0020E17241B6E000E62
:1041880018201C6E1BC0F6FF1CC0F7FFF86A0F0E44
:10419800F76403D00800F55005D0F6CFE9FFF7CF54
:1041A800EAFFEF50B2EC3DF0030E17241B6E000E31
:1041B80018201C6E1BC0F6FF1CC0F7FFF86A0F0E14
:1041C800F76403D00800F55005D0F6CFE9FFF7CF24
:1041D800EAFFEF50B2EC3DF0040E17241B6E000E00
:1041E80018201C6E1BC0F6FF1CC0F7FFF86A0F0EE4
:1041F800F76403D00800F55005D0F6CFE9FFF7CFF4
:10420800EAFFEF50B2EC3DF0050E17241B6E000ECE
:1042180018201C6E1BC0F6FF1CC0F7FFF86A0F0EB3
:10422800F76403D00800F55005D0F6CFE9FFF7CFC3
:10423800EAFFEF50B2EC3DF00E018451B2EC3DF0D4
:104248000E018551B2EC3DF00E018251B2EC3DF009
:104258000E018351B2EC3DF00E018051B2EC3DF0FD
:104268000E018151B2EC3DF01A50B2EC3DF01950FC
:10427800B2EC3DF0010E120025BE45EF21F048EFEB
:1042880021F0010E49EF21F0000E2C6E2C50D8B40D
:1042980050EF21F052EF21F05AEF21F0251E241E95
:1042A800231E226C000E2322242225220101EABFAC
:1042B80060EF21F062EF21F064EF21F00001F79345
:1042C8000101EABF6CEF21F06AEF21F072EF21F0F3
:1042D800000E296E010E286E76EF21F0E9C128F054
:1042E800EAC129F0E7C12AF0E8C12BF02C50D8B474
:1042F80080EF21F082EF21F099EF21F02A06D8A073
:104308002B062C50D8A48BEF21F08DEF21F093EFE2
:1043180021F0000E276E2B0E266E97EF21F0000E6F
:10432800276E2D0E266E26C02CF0000E2E6E1F0E48
:104338002D6E000E0201916FE6EF21F02D06D8A038
:104348002E06720E2D24D96E020E2E20DA6E22C091
:1043580005F023C006F024C007F025C008F00A0EB7
:10436800096E000E0A6E000E0B6E000E0C6E2CEC21
:1043780031F005C00FF006C010F098EC3AF00F507D
:10438800300FDF6E2806D8A029062A06D8A02B06EB
:1043980022C005F023C006F024C007F025C008F0AD
:1043A8000A0E096E000E0A6E000E0B6E000E0C6EE1
:1043B80028EC2EF005C022F006C023F007C024F038
:1043C80008C025F02EBEF1EF21F02E5008E12D0493
:1043D800D8A0F1EF21F0F3EF21F020EF22F02250E6
:1043E800231024102510D8A4FCEF21F0FEEF21F0B3
:1043F800A2EF21F029BE0BEF22F0295006E1280494
:10440800D8B009EF22F00BEF22F0A2EF21F02BBE7B
:1044180016EF22F02B5008E12A04D8A016EF22F05C
:1044280018EF22F020EF22F00001F7B31EEF22F080
:1044380020EF22F0A2EF21F02C50D8B426EF22F082
:1044480028EF22F033EF22F02D06D8A02E06720EA8
:104458002D24D96E020E2E20DA6E2CC0DFFF20C06C
:1044680015F021C016F0720E2D24176E020E2E20A4
:10447800186E2AC019F02BC01AF0F2EC33F01200B3
:10448800000E0001E96F000EE86F010E02014D27D2
:10449800000E4E234F235023010E0101F325F36F25
:1044A800000EF421F46F040EF45DD8B05EEF22F034
:1044B80060EF22F064EF22F0040EF46F000EF36F49
:1044C800F5C1ECF0F6C1EDF028EF23F020EE33F063
:1044D800EC51D926ED51DA22DE50DE10D8B477EF50
:1044E80022F079EF22F01BEF23F020EE33F0EC51AD
:1044F800D926ED51DA22DECFE4F0DDCFE5F0FF0E6C
:10450800E425E66FFF0EE521E76F20EE33F0EC516E
:10451800D926ED51DA22E6C0DEFFE7C0DDFF20EE46
:1045280033F0EC51D926ED51DA22DE50DE10D8A452
:10453800A0EF22F0A2EF22F01BEF23F020EE2EF0E6
:10454800EC51D926ED51DA220D0EDE18D8A4AFEFC2
:1045580022F0B1EF22F01BEF23F0050EE46F000EFE
:10456800E56F20EE37F0EC51D926ED51DA22DF5015
:10457800E66FE651E45DEA6FE551D8A0E505EB6F1B
:10458800EBBFCBEF22F0C9EF22F0CFEF22F0000E05
:10459800EB6F000EEA6FEAC0E4F020EE35F0EC5164
:1045A800D926ED51DA22DECFE5F0DDCFE6F0E42BB7
:1045B800E1EF22F0D890E537E637E42FDEEF22F07E
:1045C800000120EE33F0EC51D926ED51DA22E5C096
:1045D800DEFFE6C0DDFF20EE37F0EC51D926ED51C5
:1045E800DA22DF50D8B4FBEF22F0FDEF22F00DEF16
:1045F80023F020EE37F0EC51D926ED51DA2210EEF7
:1046080037F0EC51E126ED51E222E750E46FE40582
:10461800DF6E20EE2EF0EC51D926ED51DA220C0E89
:10462800DF6EECC059F0EDC05AF028EC00F0000144
:1046380020EE2FF0EC51D926ED51DA22DECFECF046
:10464800DDCFEDF0E84BE92B0001EC51ED11D8B4CA
:1046580030EF23F032EF23F046EF23F0F8C1E4F017
:10466800E56BE4BFE507E451E85DE951800AE66FD0
:10467800E551800AE659D8A044EF23F046EF23F02D
:104688006AEF22F01200000E096E140E0101F719EC
:10469800D8A451EF23F053EF23F033EF24F0000EAA
:1046A800056E000E066E3DEF24F009500A0D000E4F
:1046B800F324D96E030EF420DA6EDECF07F0DDCFD7
:1046C80008F007B46AEF23F06CEF23F032EF24F020
:1046D80009500A0D000EF324D96E030EF420DA6E89
:1046E800DE6ADD6A09500A0D000EF324D96E030E46
:1046F800F420DA6EDECF07F0DDCF08F0040E0712E3
:10470800000E081209500A0D000EF324D96E030E8C
:10471800F420DA6E07C0DEFF08C0DDFF09500A0D7D
:10472800040EF324D96E030EF420DA6EFF0EDE6E4B
:104738001F0EDD6E09500A0D060EF324D96E030E06
:10474800F420DA6EDE6ADD6A09500A0D080EF324D9
:10475800D96E030EF420DA6E57C0DEFF58C0DDFFB5
:1047680057505810D8B4BBEF23F0BDEF23F009EF32
:1047780024F009500A0D000EF324076E030EF420EE
:10478800086E20EE06F05750D9265850DA2207C096
:10479800DEFF08C0DDFF20EE04F05750D926585040
:1047A800DA22DECF07F0DDCF08F0070E0726000E6D
:1047B800082209500A0D020EF324D96E030EF420C4
:1047C800DA6E07C0DEFF08C0DDFF09500A0D020ED1
:1047D800F324D96E030EF420DA6EDECF07F0DDCFB6
:1047E80008F007A0FAEF23F0FCEF23F01EEF24F007
:1047F80009500A0D020EF324D96E030EF420DA6E66
:10480800DE2A000EDD221EEF24F009500A0D020EEA
:10481800F324D96E030EF420DA6E160EDE6E140E33
:10482800DD6E09500A0D000EF3240101ED6F030E31
:10483800F420EE6F09500A0D000EF324576E030E94
:10484800F420586E0101F72B09500A0D000EF324CD
:10485800056E030EF420066E3DEF24F0092A130EB0
:10486800096439EF24F03BEF24F059EF23F053EFBC
:1048780023F012000101EABF44EF24F046EF24F0D0
:1048880048EF24F00001F7930101EABF50EF24F04C
:104898004EEF24F056EF24F0000E2E6E010E2D6E12
:1048A8005AEF24F0E9C12DF0EAC12EF0E7C12FF04C
:1048B800E8C130F0000E326E1F0E316E000E02019C
:1048C800916FDEEF24F03106D8A0320622500F0B8C
:1048D800336E090E336473EF24F075EF24F07DEF27
:1048E80024F0570E33242B6E2C6A000E2C2283EFF3
:1048F80024F0300E33242B6E2C6A000E2C222BC091
:1049080033F0BF0E2624276E286AFF0E282228506F
:1049180007E11A0E275CD8B094EF24F096EF24F044
:10492800B5EF24F03350276E286A200E2712000EA8
:1049380028129F0E2724296EFF0E28202A6E2A503F
:1049480007E11A0E295CD8B0ACEF24F0AEEF24F0E2
:10495800B5EF24F033C009F00A6A4CEC3BF009507B
:10496800336E720E3124D96E020E3220DA6E33C0E5
:10497800DFFF2D06D8A02E062F06D8A0300622C0AD
:1049880027F023C028F024C029F025C02AF0050EFE
:10499800D3EF24F0D8902A32293228322732E82E51
:1049A800CEEF24F027C022F028C023F029C024F03D
:1049B8002AC025F032BEEAEF24F0325009E1020E97
:1049C800315CD8A0EAEF24F0ECEF24F019EF25F0E1
:1049D8002250231024102510D8A4F5EF24F0F7EF67
:1049E80024F067EF24F02EBE04EF25F02E5006E1E8
:1049F8002D04D8B002EF25F004EF25F067EF24F07E
:104A080030BE0FEF25F0305008E12F04D8A00FEF8B
:104A180025F011EF25F019EF25F00001F7B317EF96
:104A280025F019EF25F067EF24F020C015F021C01C
:104A380016F0720E3124176E020E3220186E2FC037
:104A480019F030C01AF0F2EC33F01200000E0B6EC1
:104A580002019E390F0B096E0A6AD89009360A3688
:104A6800D89009360A36EC0E09240D6EFF0E0A207E
:104A78000E6E0D500E10D8B444EF25F046EF25F019
:104A880009EF26F0020E0101FB6F180EFA6F020102
:104A98009FA351EF25F053EF25F003EF26F0F4EF35
:104AA80025F0D3EC3BF00C6EDBEF25F00D500E102B
:104AB800D8B461EF25F063EF25F06DEF25F00DC058
:104AC80005F00EC006F06BEC39F0000E0E6E000E0D
:104AD8000D6E010E0B6EF4EF25F00E5009E1030E7A
:104AE8000D5CD8A07AEF25F07CEF25F0A6EF25F035
:104AF800D3EC3BF00C6E040E0C18D8A486EF25F00E
:104B080088EF25F0A6EF25F031EC3AF005C0FAF170
:104B180006C0FBF1FD0E0D240D6EFF0E0E200E6E6D
:104B2800B50E0101FA5D050EFB59D8A09EEF25F0E0
:104B3800A0EF25F06DEF25F0050EFB6FB40EFA6FB0
:104B48006DEF25F0000E0E6E000E0D6E000E0B6E52
:104B5800F4EF25F0D3EC3BF00C6E0D06D8A00E0652
:104B6800010E0C64BAEF25F0BCEF25F0A6EF25F096
:104B78000C50FE0F0C6E0C50096E0A6A09500D5C41
:104B88000A500E58D8A0CBEF25F0CDEF25F0A6EFB0
:104B980025F00CC005F0066A6BEC39F00C500D5C82
:104BA8000D6E0E50D8A00E040E6E6DEF25F00C5051
:104BB800096E0A6A0A50000AD8B4E5EF25F0AEEF8C
:104BC80025F00950000AD8B45AEF25F0010AD8B4E4
:104BD800F4EF25F0030AD8B471EF25F0AEEF25F015
:104BE8000D06D8A00E060D2806E10E28D8A4FFEF62
:104BF80025F001EF26F055EF25F00BEF26F00DC05C
:104C080005F00EC006F06BEC39F0010E0B6E0B5080
:104C18001200010120EE02F0ED51D926EE51DA2200
:104C2800DECF0BF0DDCF0CF020EE04F05750D92684
:104C38005850DA22DECF0DF0DDCF0EF00B500D5CB0
:104C4800136E0C500E58146ED8901334116E143421
:104C5800126E30EF26F000F0D2AA35EF26F037EFCB
:104C680026F043EF26F01106D8A0120611501210B4
:104C7800D8A441EF26F043EF26F02FEF26F0D2BA62
:104C880048EF26F04AEF26F0EEEF26F0140E0E015C
:104C9800F56F160EF46F010120EE02F0ED51D926E2
:104CA800EE51DA22DECFF0FEDDCFF1FE20EE04F089
:104CB8005750D9265850DA22DECFF2FEDDCFF3FE68
:104CC800D298D28A13C005F014C006F0000E086E00
:104CD800280E076E93EC3CF005C011F006C012F0E8
:104CE80077EF26F000F0D2AA7CEF26F07EEF26F0D0
:104CF8008AEF26F01106D8A0120611501210D8A477
:104D080088EF26F08AEF26F076EF26F0D2BA8FEFFA
:104D180026F091EF26F0EEEF26F057C015F058C0B8
:104D280016F0010120EE02F0ED51D926EE51DA22FB
:104D3800DECF0FF0DDCF10F0DCEF26F020EE02F032
:104D48001550D9261650DA22DECF0BF0DDCF0CF045
:104D58000F500B5E10500C5A20EE02F01550D92659
:104D68001650DA220BC0DEFF0CC0DDFF20EE04F087
:104D78001550D9261650DA22DECF0BF0DDCF0CF015
:104D88000F500B5E10500C5A20EE04F01550D92627
:104D98001650DA220BC0DEFF0CC0DDFF20EE08F053
:104DA8001550D9261650DA22DECF15F0DDCF16F0D1
:104DB80015501610D8A4E3EF26F0E5EF26F0A2EF81
:104DC80026F0160E13240E01E26F140E1420E36F62
:104DD800EFEF26F0FF00120002013B913B953B9953
:104DE800F0EC38F0000E02013E6F000E3D6F000E31
:104DF8000101EC6F000EEB6F000ED26E0E01FDB5D7
:104E080008EF27F00AEF27F002EF27F0D2B60FEFEE
:104E180027F011EF27F00AEF27F017EF27F002012C
:104E28003B933EEC37F060BC1CEF27F01EEF27F0F9
:104E380013EF27F0000E0E01FE6F00F000F000F0F7
:104E4800A00E0E01FE6FFDA12CEF27F02EEF27F02C
:104E580027EF27F00D0EA06F00F0B30E0E01A26F22
:104E680000F0000E0E01A36F00F0150E0E01A46FE6
:104E780000F0000E0E01A76F120EA66F00F0140EC0
:104E88000E01E56F160EE46F1F0EE76FE669000E60
:104E9800E96F000EE86F140EEB6F150EEA6F000E47
:104EA8007B6E000E7A6E140EE36F160EE26F140E10
:104EB800ED6F150EEC6F050EAB6FEE0EAA6F79EC69
:104EC8003DF005C014F006C015F014C0D9FF15C098
:104ED800DAFFDF500E01846F00F020EE01F014506D
:104EE800D9261550DA22DF500E01856F00F020EE2A
:104EF80002F01450D9261550DA22DF500E01826FC5
:104F080000F020EE03F01450D9261550DA22DF50B5
:104F18000E01836F00F020EE04F01450D9261550CE
:104F2800DA22DF500E01806F00F020EE05F01450F9
:104F3800D9261550DA22DF500E01816F00F0AB0E32
:104F48000E01D86F040ED26E010E086E000E076EA9
:104F5800000E45EC3CF0010E086E100E076E100EA8
:104F680045EC3CF01D0E086E4A0E076E140E45EC1B
:104F78003CF084EC3BF0590E0E01FB6F000E086EFE
:104F8800120E076E120E45EC3CF0120015EC3DF0C7
:104F9800F28EF28C000E94EC35F08D92140EABEC80
:104FA8003DF08D82190E0001F56F580EE82EFED7E0
:104FB800F52FFCD700F08D9222EEE9F011EECFF03C
:104FC800060EDBCFE3FFE806FCE2CF0E0101E16F3E
:104FD800010EE26FE1C106F0E2C107F0000E096EB2
:104FE800070E086E12EC3BF08D828D9222EEE2F0F5
:104FF80011EED6F0060EDBCFE3FFE806FCE2D60E94
:105008000101E16F010EE26FE1C106F0E2C107F0B4
:10501800000E096E070E086E12EC3BF08D82F0C28E
:10502800DDF1F1C2DEF1F2C2DFF1F3C2E0F1000E10
:105038009B6ED38240EC33F08D92DD0E0101E16F5F
:10504800010EE26FE1C106F0E2C107F0000E096E41
:10505800040E086E12EC3BF08D82060E0001F66F0E
:10506800B60EF56F030EE82EFED7F52FFCD7F62FF8
:10507800FAD700D08D92030EABEC3DF09EA647EF19
:1050880028F049EF28F042EF28F09E96000EABEC8E
:105098003DF09EA652EF28F054EF28F04DEF28F08F
:1050A8009E962C0EABEC3DF09EA65DEF28F05FEFD0
:1050B80028F058EF28F09E96FF0EABEC3DF0B9ECC7
:1050C8003DF09EA66AEF28F06CEF28F065EF28F017
:1050D8009E96FF0EABEC3DF0B9EC3DF09EA677EF47
:1050E80028F079EF28F072EF28F09E96FF0EABECCF
:1050F8003DF0B9EC3DF09EA684EF28F086EF28F04D
:105108007FEF28F09E96FF0EABEC3DF0B9EC3DF03A
:105118009EA691EF28F093EF28F08CEF28F09E964A
:105128008D82F40E0001F56F800EE82EFED7F52F64
:10513800FCD700F01EEF28F026EF00F022EEDBF09F
:1051480010EE13F0060EDBCFE3FFE806FCE210C01A
:105158001EF011C01FF01E501F10D8A4B6EF28F083
:10516800B8EF28F0BCEF28F0130E1E6E000E1F6E6D
:105178001EC005F01FC006F00AEC3AF005C022F088
:1051880006C023F0E9C120F0EAC121F021BECFEF2B
:1051980028F0D1EF28F0E6EF28F02250205C2150CB
:1051A800800A126E2350800A1258D8A0DEEF28F029
:1051B800E0EF28F0E2EF28F0E6EF28F020C022F038
:1051C80021C023F022C020F023C021F0E7C11CF049
:1051D800E8C11DF00001F7B1F4EF28F0F6EF28F070
:1051E80013EF29F004EF29F0000E066E200E056E6D
:1051F8000EC007F00FC008F078EC32F0224A232ADC
:105208001C50225C2350800A126E1D50800A1258CE
:10521800D8A011EF29F013EF29F0F8EF28F0000ECD
:105228001B6E000E1A6E37EF29F01EC0F6FF1FC066
:10523800F7FFF86A0F0EF76403D00800F55005D0A1
:10524800F6CFE9FFF7CFEAFFEF50126E1250056E66
:10525800066A0EC007F00FC008F078EC32F01E4A5C
:105268001F2A1A4A1B2A20501A5C1B50800A126EE9
:105278002150800A1258D8A044EF29F046EF29F0AF
:1052880019EF29F00001F7A14CEF29F04EEF29F0B2
:105298006BEF29F05CEF29F0000E066E200E056E0C
:1052A8000EC007F00FC008F078EC32F0224A232A2B
:1052B8001C50225C2350800A126E1D50800A12581E
:1052C800D8A069EF29F06BEF29F050EF29F0120010
:1052D800C90E056E020E066E000E086E080E076EE9
:1052E8005CEC38F00201CF51D011D8B47EEF29F030
:1052F80080EF29F08AEF29F000018A518B11D8A498
:1053080088EF29F08AEF29F031EF2AF00201CB511A
:1053180000018D6F8C6B22EECBF0DECF8EF0DDCFEF
:105328008FF08FC08EF08F6BFF0E8E17000E8F17C9
:105338008C518E110201CB6F00018D518F1102012A
:10534800CC6FC95100018D6F8C6BC9C28EF0CAC277
:105358008FF08FC08EF08F6BFF0E8E17000E8F1799
:105368008C518E1102016B6F00018D518F1102015A
:105378006C6FCD5100018D6F8C6B22EECDF0DECFBE
:105388008EF0DDCF8FF08FC08EF08F6BFF0E8E17F3
:10539800000E8F178C518E110201CD6F00018D51B7
:1053A8008F110201CE6F0D0E0001906F88EC3DF059
:1053B80005C091F006C092F006EF2AF091C0F6FF02
:1053C80092C0F7FF0201CB510900F51808E1CC5152
:1053D8000900F518D8A4F3EF29F0F5EF29F0FCEF50
:1053E80029F045EC3DF0010E0001906F10EF2AF016
:1053F80091C005F092C006F0F4EC3AF005C091F0C7
:1054080006C092F0000191519211D8A40EEF2AF033
:1054180010EF2AF0E2EF29F00D0E9019D8A417EF3B
:105428002AF019EF2AF031EF2AF0B6C27DF0B7C2A0
:105438007EF0B8C27FF0B9C280F0B2C281F0B3C2C8
:1054480082F0B4C283F0B5C284F0000E866F400EBD
:10545800856F9CEC2DF031EF2AF01200000E000150
:105468008D6F31EC3AF005C083F006C084F031EC62
:105478003AF005C085F006C086F0000120EE0CF079
:105488007D51D9267E51DA22DECF43F0DECF44F0BB
:10549800DECF45F0DECF46F020EE09F07D51D9266B
:1054A8007E51DA22DF50476EDAEC1EF000018D6F74
:1054B8008D05D8A462EF2AF064EF2AF0EBEF2AF00A
:1054C80020EE02F07D51D9267E51DA22DECF7FF020
:1054D800DDCF80F0EC0E7F258B6FFF0E80218C6F67
:1054E8007DC0D9FF7EC0DAFFDF500F0B7F6F806B66
:1054F800D8907F378037D8907F37803720EE02F0FA
:105508007D51D9267E51DA22DECF81F0DDCF82F0BF
:105518007F51815D8B6F805182598C6F000E066EB2
:10552800000E056E5CEC3DF0000E066E000E056E7A
:105538005CEC3DF083C005F084C006F05CEC3DF007
:1055480085C005F086C006F05CEC3DF09CEC3DF0B3
:10555800F80E00018B250B6EFF0E8C210C6E33ECC0
:105568002FF000018D6F8D05D8A4BDEF2AF0BFEF95
:105578002AF0EBEF2AF0000E886F220E876F000EDC
:10558800186E220E176E8BC019F08CC01AF0000E20
:105598001C6E000E1B6EB9EC36F017C089F018C0EF
:1055A8008AF0890E056E000E066E000E086E020E59
:1055B800076E000E0A6E240E096E26EC38F08BC0BA
:1055C80025F08CC026F047EC35F000018D6F8D5129
:1055D800120020EE22F05950D9265A50DA22DE0461
:1055E800D8A4F9EF2AF0FBEF2AF0A3EF2BF020EE76
:1055F8001AF05950D9265A50DA220001BE51DE5C01
:10560800BF51DE58D8A00BEF2BF00DEF2BF013EFA6
:105618002BF0BEC0C8F0BFC0C9F01DEF2BF020EEC4
:105628001AF05950D9265A50DA22DECFC8F0DDCF09
:10563800C9F020EE20F05950D9265A50DA22DECF90
:1056480005F0DDCF06F0C8C007F0C9C008F05CEC73
:1056580038F020EE20F05950D9265A50DA22DECF01
:10566800C0F0DDCFC1F00001C851C027C951C12326
:1056780020EE20F05950D9265A50DA22C0C0DEFF59
:10568800C1C0DDFF20EE1AF05950D9265A50DA224F
:10569800DECFC0F0DDCFC1F0C851C05FC951C15BDA
:1056A80020EE1AF05950D9265A50DA22C0C0DEFF2F
:1056B800C1C0DDFF20EE08F05950D9265A50DA2231
:1056C800DECFC0F0DECFC1F0DECFC2F0DECFC3F058
:1056D800C851C025C46FC951C121C56F000EC22170
:1056E800C66F000EC321C76F20EE0CF05950D926A3
:1056F8005A50DA22C4C0DEFFC5C0DEFFC6C0DEFFD6
:10570800C7C0DEFF20EE38F05950D9265A50DA22A9
:10571800100EDF6E20EE2CF05950D9265A50DA229E
:10572800010EDF6E59C07DF05AC07EF01CEC11F0FE
:1057380020EE2CF05950D9265A50DA22DF6A12008E
:1057480002013BA3AAEF2BF0ACEF2BF052EF2CF0A9
:1057580077EC3AF0C10E056E010E066E000E086E6B
:105768000E0E076E5CEC38F00101CD510001EE6FB2
:10577800ED6B21EECDF0DECFEFF0DDCFF0F0F0C035
:10578800EFF0F06BFF0EEF17000EF017ED51EF1171
:105798000101CD6F0001EE51F0110101CE6F55EC02
:1057A8003DF021EF2CF073EC0DF050EF2CF0B4EC41
:1057B80014F050EF2CF0CDC1BDF1CEC1BEF1010106
:1057C800BF6BC06BC0BFF7EF2BF0C051BF1109E131
:1057D800DC0EBD5D050EBE59D8B0F5EF2BF0F7EF26
:1057E8002BF00CEF2CF06D0E0001606F010E616F55
:1057F800820E626FFE0E636FBDC164F0BEC165F0BC
:10580800BFC166F0C0C167F043EC39F050EF2CF02F
:105818006D0E0001606F010E616F340E626FFF0E36
:10582800636FBDC164F0BEC165F0BFC166F0C0C1A1
:1058380067F043EC39F050EF2CF021EECDF0DECFDD
:10584800EDF0DDCFEEF00001EE51080AD8B437EFE5
:105858002CF0890AD8B442EF2CF0070AD8B449EFE3
:105868002CF0DFEF2BF0ED51000AD8B4DBEF2BF072
:10587800060AD8B4D7EF2BF0DFEF2BF0ED51000A72
:10588800D8B450EF2CF0DFEF2BF0ED51DD0AD8B48F
:1058980050EF2CF0DFEF2BF03EEC37F01200010157
:1058A800EABF59EF2CF05BEF2CF05DEF2CF0000114
:1058B800F7930101EABF65EF2CF063EF2CF06BEF73
:1058C8002CF0000E276E010E266E6FEF2CF0E9C14A
:1058D80026F0EAC127F0E7C128F0E8C129F0000E58
:1058E8002B6E1F0E2A6E000E0201916FBAEF2CF07C
:1058F8002A06D8A02B06720E2A24D96E020E2B2057
:10590800DA6E22C005F023C006F024C007F025C0D7
:1059180008F00A0E096E000E0A6E000E0B6E000EDD
:105928000C6E75EC36F00550300FDF6E2606D8A0E9
:1059380027062806D8A0290622C005F023C006F0AD
:1059480024C007F025C008F00A0E096E000E0A6E82
:10595800000E0B6E000E0C6EF5EC34F005C022F054
:1059680006C023F007C024F008C025F02A502B10E9
:10597800D8B4C1EF2CF0C3EF2CF0F0EF2CF022508C
:10598800231024102510D8A4CCEF2CF0CEEF2CF047
:105998007CEF2CF027BEDBEF2CF0275006E1260425
:1059A800D8B0D9EF2CF0DBEF2CF07CEF2CF029BE2F
:1059B800E6EF2CF0295008E12804D8A0E6EF2CF0F7
:1059C800E8EF2CF0F0EF2CF00001F7B3EEEF2CF03D
:1059D800F0EF2CF07CEF2CF020C015F021C016F071
:1059E800720E2A24176E020E2B20186E28C019F08A
:1059F80029C01AF0F2EC33F0120007C011F008C009
:105A080012F0136A146A1FEF2DF0000E166E000EC6
:105A1800156EA6EC3DF0166EA6EC3DF0156E155011
:105A2800112616501222000E1322000E1422020E06
:105A3800055E000E065A065007E1020E055CD8B056
:105A480028EF2DF02AEF2DF009EF2DF00550061064
:105A5800D8B431EF2DF033EF2DF071EF2DF0000EAB
:105A6800166E000E156EA6EC3DF0166E000E156E45
:105A78001550112616501222000E1322000E142261
:105A880071EF2DF011C009F012C00AF013C00BF02D
:105A980014C00CF0110E56EF2DF0D8900C320B32CA
:105AA8000A320932E82E51EF2DF0FF0E11140D6E57
:105AB800FF0E12140E6E000E13140F6E000E141447
:105AC800106E09500D24116E0A500E20126E0B50E4
:105AD8000F20136E0C501020146E11C009F012C064
