:04000000DDEF08F038
:1010000000CC1100000000BE100000000000000035
:1010100000000000000A4031000040000000026EA5
:10102000C6BA15EF08F017EF08F05DEF08F00250B0
:10103000040D010EF326000EF422150EF324F66EB5
:10104000100EF420F76E0800F5CFC7FF0250040D14
:10105000150EF324F66E100EF420F76E0800F5CF8F
:10106000C6FF000EC56E0250040D020EF326000EE0
:10107000F422150EF324F66E100EF420F76E08001D
:10108000F5CFC8FF0250040D030EF326000EF42224
:10109000150EF324F66E100EF420F76E0800F5CF4F
:1010A00001F001460146014694500118F70B011862
:1010B000946EC68A010E5EEF08F0000E120001C0A9
:1010C00005F002C006F07BEF08F005C0D9FF06C0AE
:1010D000DAFFDF50C96E9EA670EF08F072EF08F0DD
:1010E0006BEF08F09E9605C0D9FF06C0DAFFC9CFA6
:1010F000DFFF054A062A0306D8A00406032806E1F6
:101100000428D8A486EF08F088EF08F065EF08F00F
:101110001200D6EC08F09296898696928D82020E85
:10112000076E000E086E000E0A6E070E096E000EA6
:101130009B6ED382010E0FEC08F08D9207C001F078
:1011400008C002F009C003F00AC004F05FEC08F028
:101150008D82E6EC08F09AEF08F000EF00F0000E48
:101160008D6E000E8C6E000E896E000E8E6E000E5F
:101170008A6E000E8F6E000E8B6E000E966EFE0E47
:10118000976E3F0E926E100E986E9368D70E946E07
:10119000070E956EF00EC1161200400EC76E000EBF
:1011A000C66E000EC86E9496C69A1200CDEC08F07A
:1011B000AFEC08F0E2EC08F01200000EF86E00014F
:1011C00089EF08F0D382000E9B6E1200C69A1200BF
:06FFF800A0F4C5FFF8F7BC
:00000001FF
