:0400000067EF09F0AD
:101000000058130000F8120000941200004C135412
:1010100013000000000A40310000400000009BEC7B
:1010200009F0010EDCEC08F08D92140EA6EC09F02C
:101030008D82190E086E580EE82EFED7082EFCD7AA
:1010400000D08D9220EE25F010EE0AF0060EDBCFD8
:10105000E3FFE806FCE20A0E1C6E000E1D6E1CC0CB
:1010600002F01DC003F0000E056E070E046E4AEC80
:1010700009F08D828D9220EE1EF010EE11F0060E1A
:10108000DBCFE3FFE806FCE2110E1C6E000E1D6EC6
:101090001CC002F01DC003F0000E056E070E046EAA
:1010A0004AEC09F08D822CC018F02DC019F02EC02A
:1010B0001AF02FC01BF0000E9B6ED3828D92180E7B
:1010C0001C6E000E1D6E1CC002F01DC003F0000E51
:1010D000056E040E046E4AEC09F08D82060E096E50
:1010E000B60E086E040EE82EFED7082EFCD7092E89
:1010F000FAD78D92030EA6EC09F09EA682EF08F0B7
:1011000084EF08F07DEF08F09E96000EA6EC09F043
:101110009EA68DEF08F08FEF08F088EF08F09E96FE
:101120002C0EA6EC09F09EA698EF08F09AEF08F0B6
:1011300093EF08F09E96FF0EA6EC09F0AAEC09F0DA
:101140009EA6A5EF08F0A7EF08F0A0EF08F09E9686
:10115000FF0EA6EC09F0AAEC09F09EA6B2EF08F08B
:10116000B4EF08F0ADEF08F09E96FF0EA6EC09F084
:10117000AAEC09F09EA6BFEF08F0C1EF08F0BAEFA5
:1011800008F09E96FF0EA6EC09F0AAEC09F09EA6C8
:10119000CCEF08F0CEEF08F0C7EF08F09E968D82F6
:1011A000F40E086E800EE82EFED7082EFCD700D075
:1011B0005EEF08F000EF00F0026EC6BAE2EF08F052
:1011C000E4EF08F02AEF09F00250040D010EF326B7
:1011D000000EF422150EF324F66E100EF420F76EB6
:1011E0000800F5CFC7FF0250040D150EF324F66E6C
:1011F000100EF420F76E0800F5CFC6FF000EC56E86
:101200000250040D020EF326000EF422150EF324F4
:10121000F66E100EF420F76E0800F5CFC8FF0250EE
:10122000040D030EF326000EF422150EF324F66EC1
:10123000100EF420F76E0800F5CF01F001460146CC
:10124000014694500118F70B0118946EC68A010EDE
:101250002BEF09F0000E1200000E8D6E000E8C6E4A
:10126000000E896E000E8E6E000E8A6E000E8F6E5E
:10127000000E8B6E000E966EFE0E976E3F0E926EF7
:10128000100E986E9368D70E946E070E956EF00E42
:10129000C116120002C006F003C007F059EF09F0B2
:1012A00006C0D9FF07C0DAFFDF507CEC09F0064A20
:1012B000072A0406D8A00506042806E10528D8A4B4
:1012C00064EF09F066EF09F050EF09F01200120E1A
:1012D000F66E130EF76E000EF86E00EE1EF010EEB6
:1012E00012F00900F5CFEEFFE550E150FAE1000EF3
:1012F000F86E00010FEF08F0016E01C0C9FF9EA655
:1013000084EF09F086EF09F07FEF09F09E96C9504F
:10131000120002021C60961000020204E80258004B
:1013200002000088400EC76E000EC66E000EC86E2A
:101330009496C69A120092EC09F02CEC09F0A2ECFB
:1013400009F01200D382000E9B6E1200016E01C0E4
:0C135000C9FF1200C9501200C69A12001A
:06FFF800A0F4C5FFF8F7BC
:00000001FF
