:04000000E9EF08F02C
:1010000000E41100000000221100000000000000B8
:1010100000000000000A4031000040000000026EA5
:10102000C6BA15EF08F017EF08F05DEF08F00250B0
:10103000040D010EF326000EF422150EF324F66EB5
:10104000100EF420F76E0800F5CFC7FF0250040D14
:10105000150EF324F66E100EF420F76E0800F5CF8F
:10106000C6FF000EC56E0250040D020EF326000EE0
:10107000F422150EF324F66E100EF420F76E08001D
:10108000F5CFC8FF0250040D030EF326000EF42224
:10109000150EF324F66E100EF420F76E0800F5CF4F
:1010A00001F001460146014694500118F70B011862
:1010B000946EC68A010E5EEF08F0000E1200E2EC9C
:1010C00008F09296898696928D82020E096E000E25
:1010D0000A6E000E0C6E070E0B6E000E9B6ED38216
:1010E000100E086EDB0E076E640EE82EFED7072E7C
:1010F000FCD7082EFAD700D0010E0FEC08F08D9225
:1011000009C001F00AC002F00BC003F00CC004F0EB
:1011100091EC08F08D82F2EC08F070EF08F000EF2F
:1011200000F001C005F002C006F0ADEF08F005C008
:10113000D9FF06C0DAFFDF50C96E9EA6A2EF08F005
:10114000A4EF08F09DEF08F09E9605C0D9FF06C0F9
:10115000DAFFC9CFDFFF054A062A0306D8A0040636
:10116000032806E10428D8A4B8EF08F0BAEF08F085
:1011700097EF08F01200000E8D6E000E8C6E000EC0
:10118000896E000E8E6E000E8A6E000E8F6E000E3F
:101190008B6E000E966EFE0E976E3F0E926E100EC8
:1011A000986E9368D70E946E070E956EF00EC1166A
:1011B0001200400EC76E000EC66E000EC86E9496EA
:1011C000C69A1200D9EC08F0BBEC08F0EEEC08F07F
:1011D0001200000EF86E00015FEF08F0D382000EDF
:0811E0009B6E1200C69A12007A
:06FFF800A0F4C5FFF8F7BC
:00000001FF
